:10000000BDC30000E3C30000E1C30000DFC3000084
:10001000DDC30000DBC30000D9C30000D7C300006C
:10002000D5C30000D3C300000C9486200C94291F74
:10003000CDC30000CBC30000C9C30000C7C300008C
:10004000C5C30000F9C50000C1C30000BFC3000064
:10005000BDC3000024C60000B9C300000C942221D7
:10006000B5C30000B3C30000B1C30000AFC30000BC
:10007000ADC30000ABC30000A9C30000A7C30000CC
:10008000A5C30000A3C30000A1C300009FC30000DC
:100090009DC300009BC3000099C3000097C30000EC
:1000A00095C3000093C3000091C30000E912C4137C
:1000B0002511C413A111C413C413C413C413C4134E
:1000C000DA1187131C125B12C413C413C413C413B4
:1000D000BF11C413C413C413C4138611C413CA11AB
:1000E000371446142616DC16BB165E145714581720
:1000F0001416581758175817581769149C145F1579
:100100005817A916AB162014581758170B144E176A
:10011000581717161D18E7179D17141807182118D8
:10012000211821181A18211821182118121821181D
:1001300021182118051821180D1821182118A517A4
:100140002118951721188D173F224222312235227E
:100150003B2263226322632246224A224E225422F9
:10016000582263225E22783D692C53455249414C06
:100170002C00783D692C545950452C000D0A002C58
:10018000002C002C002C004574616C6F6E232C2019
:1001900067315F312C2067325F312C2067325F324C
:1001A0002067325F32000D0A507265616D70204425
:1001B0006174613A0D0A000D0A002C002C004C45B8
:1001C00044232C204931286D41292C204932286DA7
:1001D00041290D0A000D0A43757272656E74733AF7
:1001E0000D0A000D0A496E5265733A20000D0A503F
:1001F00057696474682069733A20005479706520E7
:100200000053657269616C206E756D6265723A208B
:1002100000646174612066726F6D20454550524FD5
:100220004D2E0D0A002C004C4544232C6B0D0A006A
:100230004C4544232C41692C0D0A000D0A4176657A
:10024000726167652076616C7565732E0D0A002CEE
:10025000002C004C4544232C6B2C55616D70286D8F
:1002600056290D0A004C4544232C41692C55616DDB
:1002700070286D56290D0A00596F7520617265202E
:10028000696E206D6561737572656D656E7473203E
:100290006D6F6465210D0A002C002C004C45442331
:1002A0002C6B2C55616D70286D56290A00436F65C3
:1002B0006666696369656E74732061726520726534
:1002C00061647920746F20736176652E0D0A005386
:1002D0006574206574616C6F6E2023200D0A0059CF
:1002E0006F752061726520696E206D65617375722E
:1002F000656D656E7473206D6F6465210D0A0078FD
:100300003D650A002C002C00783D642C00783D737C
:100310002C454E442C31002C00783D732C44415424
:10032000412C002C00783D732C4C45442C00783D2A
:10033000732C53544152542C31002C2041206973AA
:1003400020004169232000496620706172616D734D
:10035000206973206F6B202D2070726573732022CB
:1003600079222E0A466F722072657365742070724E
:1003700065737320616E79206B65792E0D0A000D0F
:100380000A002C20002C20002C20004169232C2066
:1003900050726576696F7573202C20437572726593
:1003A0006E742C20446966662825290D0A0049666A
:1003B00020706172616D73206973206F6B202D2036
:1003C0007072657373202279222E0A466F72207232
:1003D0006573657420707265737320616E79206B2C
:1003E00065792E0A000A002C20002C20002C200009
:1003F0004169232C2050726576696F7573202C201B
:1004000043757272656E742C2044696666282529CE
:100410000A004D617820697320004D696E20697370
:1004200020002C206B20697320004C4544232000C1
:1004300043757272656E74206574616C6F6E2069AD
:10044000732000596F75206C65617665207468654E
:1004500020507265416D706C6966696572206361D8
:100460006C6962726174696F6E206D6F6465210AD8
:10047000476F6F64427965210053656C65637465ED
:1004800064204574616C6F6E2063656C6C206973C9
:100490002000536574206574616C6F6E2023200A00
:1004A00000596F752061726520696E205072654138
:1004B0006D706C69666965722063616C69627261F6
:1004C00074696F6E206D6F6465210D0A00596F7538
:1004D000206C65617665207468652063616C696273
:1004E000726174696F6E206D6F6465210A476F6F6A
:1004F00064427965210043757272656E74204C45C3
:100500004420697320002C206267643D20007369D9
:10051000673D20006D763D20002C206267643D2001
:10052000007369673D20006D763D20005468697353
:1005300020697320656E64206F662063616C696258
:10054000726174696F6E0D0A004669727374206C73
:100550006564206973206F6E210D0A00416C6C2068
:100560004C454473206973206F66662E0D0A4E6FEA
:100570007720796F752063616E2072657374617284
:10058000742063616C6962726174696F6E2E0D0A0A
:100590000053657420696E70757420726573697399
:1005A00074616E736520746F3A2000536574207017
:1005B000756C736520776964746820746F3A2000E5
:1005C000596F752061726520696E2063616C696284
:1005D000726174696F6E206D6F6465210D0A004E43
:1005E0006F7420696D706C656D656E7465642079DB
:1005F0006574200A00626C696E63746573740D0A19
:100600000070756C73650D0A66697273740D0A006B
:1006100066697273740D0A006E6578740D0A007253
:10062000657365740D0A00783D6D0A00446F6E6550
:10063000210D0A0A0052656164696E6720636F6E5E
:100640006669672E2E2E20003D0A1740A4700D40CB
:10065000713D0A400AD70340EC51F83F1F85EB3F3C
:10066000AE47E13FE17AD43F6666C63FAE47C13F41
:100670009A99B93F14AEA73F01080B00020202018C
:100680000009040000010202000005240010010519
:100690002401010104240206052406000107058146
:1006A0000310004009040100020A000000070502CF
:1006B000024000000705830240000012010002EF23
:1006C00002014041233680000101020301120100B2
:1006D0000200000040412336800001010203014C6A
:1006E0006564204D6963726F73656E736F72005538
:1006F000534220494F20426F617264000403090491
:100700000000000200090F0000030401000C0000BB
:1007100000000000000000000000000000000004D5
:1007200008020110408040102040804080080204F0
:10073000018040201002011080102040402004045D
:10074000040404030405020202020403020202027A
:10075000060606060606040402020204040000005F
:1007600000250028002B002E00310000000000248E
:100770000027002A002D00300000231911241FBE7D
:10078000CFEFDAE0DEBFCDBF11E0A0E0B1E0E8E9F5
:10079000FFE402C005900D92A235B107D9F712E02F
:1007A000A2E5B1E001C01D92A036B107E1F717E064
:1007B000CCE7D7E004C02297FE010E94EE24CA379E
:1007C000D107C9F70E942A180C94CA2719CCCF93D5
:1007D000CFB7F89480915201811127C0EFE4F7E080
:1007E0008491E0E3F7E09491E82FF0E0EE0FFF1F33
:1007F000E559F84FA591B4918C91892321F461E0DA
:1008000081E10E949D2261E081E10E9464228CB519
:1008100080618CBD8CB580648CBD61E08FE00E94EE
:10082000642261E080E10E946422809152018F5F26
:1008300080935201CFBFCF9108958EBD00000DB4BB
:1008400007FEFDCF8EB508950CB405FC0DC09EBD0E
:1008500000000DB407FEFDCF9EB58EBD00000DB4A7
:1008600007FEFDCF8EB508958EBD00000DB407FEC6
:10087000FDCF8EB59EBD00000DB407FEFDCF9EB529
:1008800008952F923F924F925F926F927F928F9234
:100890009F92AF92BF92CF92DF92EF92FF920F930F
:1008A0001F93CF93DF93CDB7DEB764970FB6F8945D
:1008B000DEBF0FBECDBFDB01BC91B88BBB2309F4FB
:1008C0009EC089839A83198A188619861A861B8680
:1008D0001C861D861E861F861C8A1F82912C812CD9
:1008E000312C212C1A8A1B8AE981FA81419051907E
:1008F00061907190FA83E983D301C201BB0F880B29
:10090000982FDC018B839C83AD83BE832C893F8130
:10091000492D582D632D722D8A899B8952016301BF
:10092000EB80FE2C0E2D1E2D0E94F2242C8B3F837B
:10093000942E852E362E272E8A8B9B8BA301920117
:10094000C301B2010E947E237B018C012B013C017B
:10095000770C4408542C3201288539854A855B85FB
:100960006C857D858E859F8557016801E42CF42C6C
:10097000042D142D0E94F224288739874A875B872B
:100980006C877D878E879F8799899F5F998BE88980
:100990009E13AACFAC88BF80C92CD82CE32CF22C94
:1009A0000A891B899501492D582D632D722DC80187
:1009B0000E94FB23A988B12CC12CD12CE12CF12C55
:1009C00000E010E00E94C52359016A017B018C01FF
:1009D000288539854A855B856C857D858E859F85D3
:1009E0000E94FB24A988B12CC12CD12CE12CF12C24
:1009F00000E010E00E94C523B901CA0104C060E014
:100A000070E080E090E064960FB6F894DEBF0FBE11
:100A1000CDBFDF91CF911F910F91FF90EF90DF90AD
:100A2000CF90BF90AF909F908F907F906F905F908E
:100A30004F903F902F9008952F923F924F925F9248
:100A40006F927F928F929F92AF92BF92CF92DF92DE
:100A5000EF92FF920F931F93CF93DF93CDB7DEB743
:100A60002D970FB6F894DEBF0FBECDBF8D879C8744
:100A70008B0107DFD8019C90292D30E040E050E049
:100A80000E94AF23CA01B9010E9417260E94322793
:100A90000E94E4252B013C01ED85FC8520E030E03F
:100AA00040E050E060E070E080E090E0812C89144C
:100AB000C1F0E190F1900191119157016801DD0CB5
:100AC000AA08BA2C6501A982BA82CB82DC825701BE
:100AD0006801E980FE2C0E2D1E2D0E94F2248394C5
:100AE000E6CFA92CB12CC12CD12CE12CF12C00E0AB
:100AF00010E00E94C5232B87832E342E252EC22E74
:100B0000D32EE42EF52ED301C201880F991FAA1F00
:100B1000BB1F8C0D9D1DAE1DBF1D8D839E83AF839E
:100B2000B887AEEFBFEFA30192010E947A232B0199
:100B30003C014C0C5D1C6E1C7F1C9D859987AC850F
:100B4000AA8720E030E040E050E060E070E080E024
:100B500090E0E0E0F0E0F91559F1A985BA85ED9053
:100B6000FD900D911D91BA87A987E414F50406053F
:100B70001705E4F0AD80BE80CF80D884AE14BF04EA
:100B8000C006D1069CF057016801DD0CAA08BA2CFA
:100B90006501A982BA82CB82DC8257016801E980B3
:100BA000FE2C0E2D1E2D0E94F224EF5FFF5FD3CF8F
:100BB000EE2369F0AE2EB12CC12CD12CE12CF12CFE
:100BC00000E010E00E94C523B901CA0104C06B8592
:100BD000782D832D922D2D960FB6F894DEBF0FBE83
:100BE000CDBFDF91CF911F910F91FF90EF90DF90DC
:100BF000CF90BF90AF909F908F907F906F905F90BD
:100C00004F903F902F900895CF93C82F6BE171E0E4
:100C10008FEE91E00E948119C03130F46EE171E0F5
:100C20008FEE91E00E94811940E150E06C2F8FEE31
:100C300091E0CF910C94691A1F920F920FB60F9208
:100C400011248F939F9380918D01813079F480E1FD
:100C500097E2909389008093880080EC80938000D5
:100C600088E08093810010928D0112C0809106016E
:100C700090910701909389008093880010928B01D6
:100C800082E085BD80E88093800081E080938D01C3
:100C90009F918F910F900FBE0F901F9018951F92EC
:100CA0000F920FB60F9211242F933F934F935F93A0
:100CB0006F937F938F939F93AF93BF93EF93FF9324
:100CC00080918C01813041F08E9A8AE087BD16BCFC
:100CD00081E080938C0150C08FEB81BB80918B01B0
:100CE000833009F415BC80918B01882341F08091F9
:100CF0008B01813011F488EC03C08CE301C08EE0DD
:100D000087BD16BC80918B018230C0F480E090E0FA
:100D10009BDD40918701509188016091890170911C
:100D20008A01480F591F611D711D4093870150931F
:100D300088016093890170938A0117C080E090E078
:100D400083DD409183015091840160918501709110
:100D50008601480F591F611D711D409383015093F7
:100D60008401609385017093860180918B018F5F70
:100D700080938B0110928C01FF91EF91BF91AF9105
:100D80009F918F917F916F915F914F913F912F91A3
:100D90000F900FBE0F901F901895CF93DF93EC012B
:100DA0008E9A80E18A95F1F78E9885E08A95F1F721
:100DB000000080E090E048DDBC01882777FD809549
:100DC000982F0E941726688379838A839B83DF91FB
:100DD000CF910895CF92DF92EF92FF920F931F93DE
:100DE000CF93DF93CDB7DEB7C05FD1090FB6F894CC
:100DF000DEBF0FBECDBF61E172E08FEE91E00E94D9
:100E00005E198AE391E00E949927182F61E072E051
:100E10008FEE91E00E945E194AE050E0612F8FEE64
:100E200091E00E94691A6BEF71E08FEE91E00E94F1
:100E30005E19E8E7F6E08491E7DE84E291E00E9443
:100E4000A6278C016DEE71E08FEE91E00E945E1995
:100E5000B801769567954AE050E08FEE91E00E94E8
:100E6000831A80E291E00E94A1276B017C0163EE6E
:100E700071E08FEE91E00E945E1923E030E0B7014F
:100E8000A6018FEE91E00E94701B40E350E060EFFE
:100E900070E0CE018F539F4F0E94892765ED71E06E
:100EA0008FEE91E00E945E196EEB71E08FEE91E0A3
:100EB0000E945E198E010F531F4FEE24E394F12C14
:100EC0004AE050E0B7018FEE91E00E94311A6CEBDE
:100ED00071E08FEE91E00E945E19F80160817181EE
:100EE0004AE050E08FEE91E00E947E1A6AEB71E0DA
:100EF0008FEE91E00E945E19F801628173814AE0F1
:100F000050E08FEE91E00E947E1A67EB71E08FEE69
:100F100091E00E945E19FFEFEF1AFF0A0C5F1F4F6E
:100F20008DE0E816F10461F640EC50E060E370E01B
:100F3000CE0101960E94892766EA71E08FEE91E06A
:100F40000E945E1967E871E08FEE91E00E948C19B3
:100F5000FE0131967F0101E010E04AE050E0B80167
:100F60008FEE91E00E94311A65E871E08FEE91E01A
:100F70000E945E19F701408151816281738122E0F4
:100F800030E08FEE91E00E946F1B63E871E08FEE1E
:100F900091E00E945E19F701448155816681778155
:100FA00022E030E08FEE91E00E946F1B61E871E07B
:100FB0008FEE91E00E945E19F701408551856285B0
:100FC000738522E030E08FEE91E00E946F1B6FE7A7
:100FD00071E08FEE91E00E945E19F701448555851E
:100FE0006685778522E030E08FEE91E00E946F1BEE
:100FF0006CE771E08FEE91E00E945E190F5F1F4F6A
:10100000F0E4EF0EF11C0430110509F0A6CFC05139
:10101000DF4F0FB6F894DEBF0FBECDBFDF91CF918B
:101020001F910F91FF90EF90DF90CF900895AB014B
:10103000BC0180E291E00C94C2278091060190915E
:10104000070190938900809388008AEF9FEF909327
:1010500085008093840080EC8093800089E08093F9
:101060008100809181008930E1F385B58230E9F318
:1010700008955898599A87EC90E00197F1F700C0CD
:1010800000005998589A08955B9885E08A95F1F781
:101090000000599A95E09A95F1F70000599885E07B
:1010A0008A95F1F700005B9A5A9A8EE0599A95E07A
:1010B0009A95F1F70000599895E09A95F1F700009C
:1010C0008150A1F75A9885E08A95F1F700000895BC
:1010D0005A9A85E08A95F1F70000599A85E08A9539
:1010E000F1F70000599885E08A95F1F700005A98C9
:1010F00008955A9885E08A95F1F70000599A85E09D
:101100008A95F1F70000599885E08A95F1F700007B
:10111000599A85E08A95F1F70000599885E08A95FB
:10112000F1F70000D5CF5F9885E08A95F1F70000D0
:101130005D9A95E09A95F1F700005D9885E08A95B3
:10114000F1F700005F9A5E9A8EE05D9A95E09A95BD
:10115000F1F700005D9895E09A95F1F70000815055
:10116000A1F75E9885E08A95F1F7000008955E9AF0
:1011700085E08A95F1F700005D9A85E08A95F1F7A0
:1011800000005D9885E08A95F1F7000008955E986B
:1011900085E08A95F1F700005D9A85E08A95F1F780
:1011A00000005D9885E08A95F1F700005D9A85E082
:1011B0008A95F1F700005D9885E08A95F1F70000C7
:1011C0000895CF93B0DFE3DFC2E18FE59DE601979D
:1011D000F1F700C00000CBDFC150B9F7CF910895FF
:1011E0002F9A2FEF80E792E0215080409040E1F766
:1011F00000C000002F982FEF81EE94E02150804036
:101200009040E1F700C000002F9A2FEF80E792E0B6
:10121000215080409040E1F700C000002F982FEF50
:1012200081EE94E0215080409040E1F700C0000042
:10123000089584B1806E84B985B18F7185B910929B
:10124000800088E0809381001092850010928400D5
:101250008AE090E0909389008093880082E08093F8
:101260006F0089E080938100809181008930E1F3F3
:1012700082E084BD15BC16BC80936E008CE387BDF4
:1012800040E052EC61E070E08FEE91E00E941D19A9
:101290002FEF8DE399E4215080409040E1F700C0AA
:1012A000000080B3806E80BB81B3806A81BB8E9862
:1012B0008AB183608AB95898269A8AB1806E8AB9B1
:1012C0008AB18F608AB9589A2E9A8BB1817F8BB977
:1012D0008BB18F718BB96E98769A8CB58F7D8CBDE2
:1012E0008CB5837F88608CBD8CB58C7F8CBD8DB5B3
:1012F00081608DBD6CDA65E376E08FEE91E00E944F
:101300005E1940E350E060EF70E08FEB91E00E94E7
:10131000892740E350E060E070E08FE891E00E94B0
:1013200089276CE276E08FEE91E00E945E1952DD33
:10133000ABDE2E9855DF2FEF83EC99E021508040F3
:101340009040E1F700C000003CDF3BDF2FEF83EC73
:1013500099E0215080409040E1F700C000002F9AB2
:1013600058988AE090E069CE8F929F92AF92BF9298
:10137000CF92DF92EF92FF926B017C0149015A01FB
:1013800020E030E048EC52E40E94C72618166CF0CA
:1013900020E030E0A901C701B6010E94782587FF4F
:1013A0000AC0C12CD12C760106C0C12CD12C28EC4E
:1013B000E22E22E4F22E20E030E048EC52E4C501B7
:1013C000B4010E94C72618166CF020E030E0A90195
:1013D000C501B4010E94782587FF0AC0812C912C99
:1013E000540106C0812C912C98ECA92E92E4B92EC0
:1013F000F8948F9885E08A95F1F7000080E11DDA76
:1014000020E030E04FE753E4C501B4010E94CB2651
:1014100020E030E048EC52E40E947C250E94E9255F
:10142000862F0BDA80E109DA20E030E04FE753E461
:10143000C701B6010E94CB2620E030E048EC52E420
:101440000E947C250E94E925862FF7D985E08A95A0
:10145000F1F700008F9A85E08A95F1F70000789403
:10146000FF90EF90DF90CF90BF90AF909F908F90C4
:1014700008951F93CF93DF9300D000D0CDB7DEB790
:10148000182F693E83E0780710F068EE73E0CB0117
:10149000A0E0B0E07727662724EC39E040E050E098
:1014A0000E94AF238D98113011F481E303C01230F4
:1014B00051F488E329833A834B835C83BED9298125
:1014C0003A81C901C1D98D9A0F900F900F900F905A
:1014D000DF91CF911F91089560E070E081E0C9DF56
:1014E00060E070E082E0C5CF2F923F924F925F9212
:1014F0006F927F928F929F92AF92BF92CF92DF9224
:10150000EF92FF920F931F93CF93DF93CDB7DEB788
:10151000C657D1090FB6F894DEBF0FBECDBF182F46
:10152000E3966FAFE397342E21E430E02C0F3D1F9C
:10153000205D3F4FFE01EF5BFF4F11921192119220
:101540001192E217F307C9F7E3962FADE397211144
:1015500001C010E080E291E00E94A1276B017C01B4
:1015600084E291E00E94A627E5969FAF8EAFE597B3
:1015700030E4139FB0011124605D7F4F40E450E0E0
:10158000CE0101960E9489272D813E814F81588589
:1015900069817A818B819C810E94CB26A70196016B
:1015A0000E947C256B017C016FDDA3DD2F9809DE95
:1015B0002D813E814F81588569817A818B819C8103
:1015C000D3DE332031F06EE273E08FEE91E00E94C3
:1015D0008C1958E4852E56E0952ECE018F5B9F4FD7
:1015E0005C0100E010E0412C512C60E8662E6FEBAE
:1015F000762E332001F165E273E08FEE91E00E94D8
:101600005E194AE050E0B8016F5F7F4F8FEE91E0C6
:101610000E94311A63E273E08FEE91E00E945E193E
:10162000F401459155916591749122E030E08FEE7F
:1016300091E00E94701BF8948F9895E09A95F1F7CD
:10164000000080E1FAD880E0F8D880E1F6D880E0A8
:10165000F4D8E5E0EA95F1F700008F9AF5E0FA9505
:10166000F1F700007894202E011132DD8FE99FE020
:101670000197F1F700C0000096E0921548F02D8127
:101680003E814F81588569817A818B819C8108C018
:101690002D853E854F85588969857A858B859C8502
:1016A00063DE9801220F331F220F331F21543E4F58
:1016B000F9016081718181E0E6962FAFE697E796A8
:1016C0003FAFE797D6DEE6962FADE697E7963FADBC
:1016D000E797F9016281738182E0CBDEE2961FAE6B
:1016E000E297E3E5F1E0119211921192119221E05B
:1016F000E338F207C1F73CE0232EE5968EAD9FADAF
:10170000E5979BDC409187015091880160918901A8
:1017100070918A0175956795579547954093870114
:10172000509388016093890170938A0180918301AD
:1017300090918401A0918501B0918601B595A795FE
:10174000979587958093830190938401A093850159
:10175000B0938601411530E853076105710564F0C7
:101760004F5F5F4F61097109409387015093880172
:101770006093890170938A018115E0E89E07A105B5
:10178000B10564F08F5F9F4FA109B1098093830178
:1017900090938401A0938501B0938601332041F199
:1017A00069E173E08FEE91E00E945E19409187013C
:1017B000509188016091890170918A012AE030E09E
:1017C0008FEE91E00E94EA1967E173E08FEE91E0FD
:1017D0000E945E19409183015091840160918501BE
:1017E000709186012AE030E08FEE91E00E944E1A5F
:1017F0008091830190918401A0918501B09186012F
:10180000893BFBE09F07A105B105ECF540918701FD
:10181000509188016091890170918A014817590798
:101820006A077B0784F144365105610571055CF157
:10183000E2962FADE29734E0239FF0011124ED5A98
:10184000FE4F481B590B6A0B7B0B4083518362830D
:1018500073832F5FE2962FAFE29710928701109269
:1018600088011092890110928A01109283011092CE
:10187000840110928501109286018FE19EE4019708
:10188000F1F700C000002A9409F037CFE2968FAD3F
:10189000E297882371F0BE016F587F4F83E591E096
:1018A000CBD80E941726F5016083718382839383CE
:1018B00005C0F50140825182628273820DDE0F5FA6
:1018C0001F4FF4E0AF0EB11C24E0820E911C0C30CF
:1018D000110509F08ECE332031F06DE073E08FEE0C
:1018E00091E00E948C19E3963FADE397332389F191
:1018F0005E0181E1A80EB11CFE01EF5BFF4F4F01BD
:1019000000E010E0F40141905190619071904F011E
:10191000F50161917191819191915F01A70196010A
:101920000E94CB269B01AC01C301B2010E947C2521
:10193000F801EE0FFF1FEE0FFF1FE157FE4F608310
:101940007183828393830F5F1F4F0C301105D1F693
:1019500061C09E012F5B3F4F490158E4A52E56E020
:10196000B52E00E010E068E073E08FEE91E00E9499
:101970005E19F501459155916591749122E030E031
:101980008FEE91E00E946F1B66E073E08FEE91E0B6
:101990000E945E19F40141905190619071904F0145
:1019A000F801EE0FFF1FEE0FFF1FE157FE4F6081A2
:1019B000718182819381A70196010E94CB269B01B0
:1019C000AC01C301B2010E947C25AB01BC0122E045
:1019D00030E08FEE91E00E946F1B64E073E08FEEC9
:1019E00091E00E945E1922E030E0B301A2018FEE87
:1019F00091E00E94701B0F5F1F4FF4E0AF0EB11C0F
:101A00000C30110509F0AFCF6FEF72E08FEE91E06F
:101A10000E945E19D6DB8FE39CE90197F1F700C0C5
:101A200000002F9ACA58DF4F0FB6F894DEBF0FBEE2
:101A3000CDBFDF91CF911F910F91FF90EF90DF907D
:101A4000CF90BF90AF909F908F907F906F905F905E
:101A50004F903F902F9008952F923F924F925F9218
:101A60006F927F928F929F92AF92BF92CF92DF92AE
:101A7000EF92FF920F931F93CF93DF93CDB7DEB713
:101A8000C65BD1090FB6F894DEBF0FBECDBF182FCD
:101A900068E772E08FEE91E00E945E19CE018F58E8
:101AA0009F4FC755DF4F99838883C95AD04080E341
:101AB000C755DF4FE881F981C95AD04011928A9504
:101AC000E9F780E291E00E94A127C055DF4F6883CB
:101AD00079838A839B83C05BD04084E291E00E943B
:101AE000A627CC54DF4F99838883C45BD04000E3A2
:101AF000202E00E0302EC755DF4F0881C95AD04054
:101B0000C655DF4FF881CA5AD040CA54DF4FF88318
:101B1000C65BD040CB55DF4F188219821A821B82D8
:101B2000C55AD040CF55DF4F188219821A821B82C6
:101B3000C15AD04040E450E0B101CE0101960E946C
:101B4000892789809A80AB80BC804D805E806F80C1
:101B50007884A3019201C501B4010E94CB26C0552F
:101B6000DF4F288139814A815B81C05BD0400E9470
:101B70007C256B017C01A3019201C501B401F4DB5A
:101B800083DAAADCB6DACE018F5B9F4F4C01A12C21
:101B9000B12C6FDACE018F559F4FFFD83501660CFF
:101BA000771C660C771CF301E154FE4F3F01608106
:101BB000718181E05EDCF3016281738182E059DC36
:101BC000CC54DF4F88819981C45BD04036DA809154
:101BD0008E01811105C0F5E0FA95F1F70000F7CF0D
:101BE000CE018B559F4FD9D8CF55DF4F28813981F2
:101BF0004A815B81C15AD040CB55DF4F68817981E2
:101C00008A819B81C55AD0400E941325F4016193BB
:101C10007193819391934F015FDC81E08A0DFBE02A
:101C2000AF16B10439F0837009F452DA9FEFA91AA4
:101C3000B90AAFCF112319F065E672E002C063E57F
:101C400072E08FEE91E00E945E19CE0141964C0148
:101C5000FE01EF58FF4FC355DF4FF983E883CD5A9C
:101C6000D040CE018F5B9F4FC555DF4F998388834E
:101C7000CB5AD040A12CB12CC155DF4FA882CF5AEE
:101C8000D040112341F0F401208131814281538100
:101C9000C701B6010DC0F501EE0FFF1FEE0FFF1FCC
:101CA000E157FE4F6081718182819381A701960186
:101CB0000E94CB269B01AC01C555DF4FE881F9811D
:101CC000CB5AD04060817181828193810E947C25B2
:101CD0002B013C014AE050E0C155DF4F6881CF5AEB
:101CE000D0408FEE91E00E94631A61E572E08FEEC2
:101CF00091E00E945E1922E030E0B301A2018FEE74
:101D000091E00E946F1B6FE472E08FEE91E00E9401
:101D10005E19C555DF4FE881F981CB5AD04041911A
:101D2000519161917191C555DF4FF983E883CB5A89
:101D3000D04022E030E08FEE91E00E94701BA301C2
:101D40009201C355DF4FE881F981CD5AD0406081BF
:101D50007181828193810E941425C355DF4FE881F0
:101D6000F981CD5AD0406193719381939193C3557A
:101D7000DF4FF983E883CD5AD040FFEFAF1ABF0A97
:101D800084E0880E911C9CE0A916B10409F074CF80
:101D9000E0E42E0E311CF0EF2F16F0E03F0609F0C4
:101DA000B9CE6BE372E08FEE91E00E945E191123D1
:101DB00019F060E372E002C067E272E08FEE91E03A
:101DC0000E945E19A02ECA54DF4FB880C65BD04077
:101DD000812C912C20E030E040E450E4F50160815A
:101DE0007181828193810E947C256B017C01F501C8
:101DF00061937193819391935F014AE050E0682D64
:101E00008FEE91E00E94631A65E272E08FEE91E03E
:101E10000E945E1922E030E0B701A6018FEE91E04A
:101E20000E94701B112359F0F401EE0FFF1FEE0FFB
:101E3000FF1FE157FE4FC082D182E282F382FFEFA3
:101E40008F1A9F0A8CE08816910421F6CA54DF4F3E
:101E50000FB6F894DEBF0FBECDBFDF91CF911F91BB
:101E60000F91FF90EF90DF90CF90BF90AF909F9039
:101E70008F907F906F905F904F903F902F9008953C
:101E80008D33910520F4BC01660F771F02C06CE30F
:101E900070E084E291E00C94C727CF9362E771E091
:101EA0008FEE91E00E945E19E8E7F6E064914AE067
:101EB00050E08FEE91E00E94691A8AE391E00E945F
:101EC0009927C82F66E671E08FEE91E00E945E19B7
:101ED0004AE050E06C2F8FEE91E0CF910C94691A9C
:101EE0003F924F925F926F927F928F929F92AF92AA
:101EF000BF92CF92DF92EF92FF920F931F93CF93F7
:101F0000DF93CDB7DEB7C857D1090FB6F894DEBF5F
:101F10000FBECDBF182F362EE9961CAE1DAE1EAEDD
:101F20001FAEE997E5961CAE1DAE1EAE1FAEE5973F
:101F30006FED72E08FEE91E00E945E1931101BC0D0
:101F40006FEC72E08FEE91E00E945E198FEE91E0EF
:101F50000E945D18892B39F48FE99FE00197F1F712
:101F600000C00000F3CF41E062E08FEE91E00E94FC
:101F7000EA1B162F115090E4199FB0011124605DE7
:101F80007F4F40E450E0CE0101960E94892780E215
:101F900091E00E94A1272B013C0184E291E00E9484
:101FA000A6278C01C980DA80EB80FC808D809E8022
:101FB000AF80B884A5019401C701B6010E94CB2669
:101FC000A30192010E947C252B013C01A5019401F3
:101FD000C701B601C9D958D87FDA8BD8FE01EF5BAB
:101FE000FF4F6F01E12CF12C44D8CE018F589F4F49
:101FF0000E94CD064701880C991C880C991CC401CD
:1020000081549E4F4C01FC016081718181E031DA85
:10201000F4016281738182E02CDAC8010ED88091CC
:102020008E01811105C0F5E0FA95F1F70000F7CFB8
:10203000CE018B589F4F0E94CD06E5962CAD3DAD4D
:102040004EAD5FADE597E9966CAD7DAD8EAD9FADC4
:10205000E9970E941325F6016193719381939193FF
:102060006F013ADA81E08E0DFBE0EF16F10439F0F2
:10207000837009F42DD8FFEFEF1AFF0AB5CF332094
:10208000B9F17E0181E1E80EF11CFE01EF5BFF4F2B
:102090006F0100E010E0F60181909190A190B19065
:1020A0006F01F70161917191819191917F01A3017C
:1020B00092010E94CB269B01AC01C501B4010E9494
:1020C0007C25F801EE0FFF1FEE0FFF1FE157FE4FBB
:1020D00060837183828393830F5F1F4F0C301105E0
:1020E000D1F66DEA72E08FEE91E00E945E1950C069
:1020F0006CE972E08FEE91E00E945E19CE018F5B79
:102100009F4F5C0100E010E04AE050E0602F8FEE4E
:1021100091E00E94631A6AE972E08FEE91E00E94FA
:102120005E19F501C190D190E190F1905F01F80145
:10213000EE0FFF1FEE0FFF1FE157FE4F6081718111
:1021400082819381A30192010E94CB269B01AC0165
:10215000C701B6010E947C25AB01BC0122E030E042
:102160008FEE91E00E946F1B68E972E08FEE91E0C4
:102170000E945E1922E030E0B701A6018FEE91E0E7
:102180000E94701B0F5F1F4F0C30110509F0BCCF70
:10219000C858DF4F0FB6F894DEBF0FBECDBFDF913A
:1021A000CF911F910F91FF90EF90DF90CF90BF9054
:1021B000AF909F908F907F906F905F904F903F90E7
:1021C00008958FEE91E079D71816190624F48FEE52
:1021D00091E081D7F6CF08954F925F926F927F92F0
:1021E0008F929F92AF92BF92CF92DF92EF92FF9227
:1021F0001F93CF93DF93CDB7DEB7C05FD1090FB682
:10220000F894DEBF0FBECDBF61EA74E08FEE91E0BF
:102210000E945E190E94440810E08FEE91E04AD7B8
:102220008FEE91E04AD718161906BCF78FEE91E0B1
:1022300052D79927FC01E156F109EA31F10508F07E
:10224000A3C2EA5AFF4F0C94EC2441E062E08FEE07
:1022500091E00E94571C4B015C0141E062E08FEE6F
:1022600091E00E94571C6B017C019B01AC01C501F0
:10227000B4017AD820E030E048EC52E4C501B40162
:102280000E94C72618166CF020E030E0A901C501B5
:10229000B4010E94782587FF0AC0812C912C54013B
:1022A00006C0812C912CB8ECAB2EB2E4BB2E20E002
:1022B00030E048EC52E4C701B6010E94C726181668
:1022C0006CF020E030E0A901C701B6010E9478253A
:1022D00087FF0AC0C12CD12C760106C0C12CD12C9D
:1022E000A8ECEA2EA2E4FA2EE1E0F0E0EC0FFD1FEC
:1022F00080E4189FE00DF11D112480829182A2825A
:10230000B382C482D582E682F78287CF62E974E025
:102310008FEE91E0D3D741E062E08FEE91E00E9432
:10232000EA1BF62E1FEF160F69E774E08FEE91E0BF
:10233000C5D74AE050E06F2D8FEE91E00E94691AF8
:102340006CCF0E94EA0663E474E08FEE91E0B6D7AA
:10235000C051DF4F0FB6F894DEBF0FBECDBFDF9187
:10236000CF911F91FF90EF90DF90CF90BF90AF90F3
:102370009F908F907F906F905F904F90089540EC6A
:1023800050E060E370E0CE0101960E94AB270E940E
:10239000EA0643CF60E374E08FEE91E08FD7612FC0
:1023A00070E06F5F7F4F4AE050E08FEE91E00E9457
:1023B000381A33CFAA24A394B12CAC0EBD1E90E4DE
:1023C000199FA00CB11C1124CC24C394D12CE12C56
:1023D000F12C41E062E08FEE91E00E94571C2B014E
:1023E0003C01F501EE0DFF1D608B718B828B938B91
:1023F0006AE274E08FEE91E061D74AE050E0B60106
:102400008FEE91E00E94311A62E274E08FEE91E06B
:1024100055D723E030E0B301A2018FEE91E00E9496
:10242000701BE4E0EE0EF11CFFEFCF1ADF0A80E331
:10243000E816F10471F6F1CE41E062E08FEE91E032
:102440000E94571C6B017C01AA24A394B12CAC0EF2
:10245000BD1E90E4199FA00CB11C1124F501C0868B
:10246000D186E286F3866AE174E08FEE91E026D7AA
:1024700022E030E0B701A6018FEE91E00E94701BD0
:1024800041E062E08FEE91E00E94571C6B017C01FD
:10249000F501648775878687978762E174E08FEE20
:1024A00091E00CD722E030E0B701A6018FEE91E079
:1024B0000E94701BB2CE40E350E060E070E0CE01BD
:1024C0008F539F4F0E94892761E0812F09DD60EFC4
:1024D00073E08FEE91E0F2D6CE018F539F4F6C01E7
:1024E000E12CF12C4AE050E06E2D8FEE91E0EBD71D
:1024F0006DEE73E08FEE91E0E1D65601F601419169
:102500005191619171916F0122E030E08FEE91E085
:102510000E946F1B6AEE73E08FEE91E0CFD6470109
:10252000880C991C880C991CC40181579E4F4C0142
:10253000FC01408151816281738122E030E08FEEA5
:1025400091E00E946F1B67EE73E08FEE91E0B6D6CC
:10255000F401608171818281938140805180628029
:102560007380F50120813181428153810E941325BE
:10257000A30192010E947C2520E030E048EC52E467
:102580000E94CB26AB01BC0122E030E08FEE91E04F
:102590000E946F1B65EE73E08FEE91E08FD6FFEF28
:1025A000EF1AFF0A8CE0E816F10409F09BCF6EEAFF
:1025B00073E08FEE91E082D68FEE91E07ED5892B8D
:1025C00009F093C0EFE9FFE03197F1F700C0000098
:1025D000F3CF40E350E060E070E0CE018F539F4FB7
:1025E0000E94892781E038DA6BE873E08FEE91E092
:1025F00065D6CE018F539F4F6C01E12CF12C4AE040
:1026000050E06E2D8FEE91E05ED768E873E08FEEBC
:1026100091E054D65601F601419151916191719129
:102620006F0122E030E08FEE91E00E946F1B65E8C1
:1026300073E08FEE91E042D64701880C991C880C1C
:10264000991CC40181579E4F4C01FC01408151816E
:102650006281738122E030E08FEE91E00E946F1B77
:1026600062E873E08FEE91E029D6F4016081718118
:10267000828193814080518062807380F501208146
:102680003181428153810E941325A30192010E944E
:102690007C2520E030E048EC52E40E94CB26AB01E0
:1026A000BC0122E030E08FEE91E00E946F1B6FE7EB
:1026B00073E08FEE91E002D6FFEFEF1AFF0A8CE095
:1026C000E816F10409F09BCF67E473E08FEE91E028
:1026D000F5D58FEE91E0F1D4892B39F4EFE9FFE0E5
:1026E0003197F1F700C00000F4CF8FEE91E0F3D402
:1026F00040E350E060E070E08937910519F48FE81D
:1027000091E03FC08FE891E00E94892786CDA12CFF
:10271000B12C41E062E08FEE91E00E94571C6B010A
:102720007C01F501EE0FFF1FEE0FFF1FE157FE4F7B
:10273000608371838283938362E473E08FEE91E020
:10274000BDD5FFEFAF1ABF0A4AE050E0B5018FEEEA
:1027500091E087D66AE373E08FEE91E0AFD523E096
:1027600030E0B701A6018FEE91E0BAD78CE0A81651
:10277000B10479F640E350E060E070E0CE018F53A1
:102780009F4F0E94AB2749CD1CDD47CD2F923F9232
:102790004F925F926F927F928F929F92AF92BF9271
:1027A000CF92DF92EF92FF920F931F93CF93DF931D
:1027B000CDB7DEB7C058D1400FB6F894DEBF0FBE1C
:1027C000CDBFFFDC60EC75E08FEE91E077D50E9425
:1027D0004408312C8E010F531F4F412C512CA8EC73
:1027E0006A2EA2E47A2E8FEE91E064D48FEE91E00F
:1027F00064D418161906BCF78FEE91E06CD49927B3
:10280000FC01E156F109EA31F10508F051C3E05944
:10281000FF4F0C94EC2441E062E08FEE91E0DAD7B8
:102820006B017C01CB012CDB6BEA75E08FEE91E054
:1028300045D54AE050E0B6018FEE91E064D6D3CFA3
:1028400041E062E08FEE91E00E94571C6B017C0139
:102850000E94170861E975E08FEE91E02FD522E024
:1028600030E0B701A6018FEE91E03AD7BCCF41E04E
:1028700062E08FEE91E0AED724E0329EF0011124A9
:10288000E154FE4F7183608381E00EC041E062E05D
:102890008FEE91E09FD734E0339EF0011124E15494
:1028A000FE4F7383628382E00E94390A9CCF0E94AC
:1028B0006C0A0E9444086CE575E006C00E946C0A30
:1028C0000E94790869E475E08FEE91E0F7D4312C2D
:1028D0008ACF0E946C0A4BE0341217C060E271E0AC
:1028E0008FEE91E00ED54AE050E06CE070E08FEEA4
:1028F00091E0B7D565E271E08FEE91E002D56CE230
:1029000075E08FEE91E0DAD46ECF33940E946808C0
:1029100060E271E08FEE91E0F4D4632D70E06F5FC0
:102920007F4F4AE050E08FEE91E09BD56BE271E083
:102930008FEE91E0E6D457CFFAE0FF2E80910601AA
:10294000909107010E941D084091870150918801D4
:102950006091890170918A017595679557954795A2
:1029600040938701509388016093890170938A0195
:102970008091830190918401A0918501B09186019D
:10298000B595A7959795879580938301909384013A
:10299000A0938501B09386014115E0E85E076105CB
:1029A000710564F04F5F5F4F6109710940938701C2
:1029B000509388016093890170938A018115F0E832
:1029C0009F07A105B10564F08F5F9F4FA109B10971
:1029D0008093830190938401A0938501B093860135
:1029E00067E275E08FEE91E069D4609187017091A4
:1029F00088018091890190918A0180908301909053
:102A00008401A0908501B0908601681979098A092E
:102A10009B090E94172620E030E44EE455E40E9412
:102A2000CB2620E03EEF4FEF56E40E947C25AB0121
:102A3000BC0122E030E08FEE91E052D661E275E019
:102A40008FEE91E03BD440918701509188016091D5
:102A5000890170918A012AE030E08FEE91E0BAD4CA
:102A600069E175E08FEE91E029D4409183015091A6
:102A7000840160918501709186012AE030E08FEE3B
:102A800091E00CD510928701109288011092890173
:102A900010928A0110928301109284011092850194
:102AA000109286012FEF32E547E021503040404040
:102AB000E1F700C00000FA9409F040CF94CE809175
:102AC0000601909107010E941D08409187015091D5
:102AD00088016091890170918A0175956795579574
:102AE00047954093870150938801609389017093C3
:102AF0008A018091830190918401A0918501B09118
:102B00008601B595A79597958795809383019093B6
:102B10008401A0938501B09386014115E0E85E072A
:102B20006105710564F04F5F5F4F61097109409362
:102B30008701509388016093890170938A01811500
:102B4000F0E89F07A105B10564F08F5F9F4FA109D1
:102B5000B1098093830190938401A0938501B09380
:102B6000860164E175E08FEE91E0A8D36091870162
:102B7000709188018091890190918A01C0908301B0
:102B8000D0908401E0908501F09086016C197D0958
:102B90008E099F090E94172620E030E44EE455E498
:102BA0000E94CB2620E03EEF4FEF56E40E947C25AA
:102BB000AB01BC0122E030E08FEE91E091D56EE0F8
:102BC00075E08FEE91E07AD34091870150918801B2
:102BD0006091890170918A012AE030E08FEE91E0E6
:102BE000F9D366E075E08FEE91E068D34091830100
:102BF0005091840160918501709186012AE030E056
:102C00008FEE91E04BD410928701109288011092C0
:102C1000890110928A01109283011092840110920E
:102C2000850110928601DFCD0E946C0ADCCD66EF33
:102C300074E08FEE91E042D3632D70E06F5F7F4FC1
:102C40004AE050E08FEE91E013D4CDCD41E062E058
:102C50008FEE91E0BFD5262E41E062E08FEE91E04D
:102C600026D64B015C0141E062E08FEE91E01FD679
:102C70006B017C019B01AC01C501B4010E94B40948
:102C80004AE050E0622D8FEE91E023D422E030E064
:102C9000B501A4018FEE91E023D522E030E0B70129
:102CA000A6018FEE91E01CD520E030E048EC52E424
:102CB000C501B4010E94C72618166CF020E030E070
:102CC000A901C501B4010E94782587FF0AC0812CA3
:102CD000912C540106C0812C912CE8ECAE2EE2E43C
:102CE000BE2E20E030E048EC52E4C701B6010E945D
:102CF000C72618166CF020E030E0A901C701B60124
:102D00000E94782587FF0AC0C12CD12C760106C00D
:102D1000C12CD12C78ECE72E72E4F72E21E0D801FB
:102D200022120BC08D929D92AD92BC921397F80126
:102D3000C482D582E682F78256CD18968D929D92F6
:102D4000AD92BC921B97F801C486D586E686F786BD
:102D50004ACD42DA48CD40E350E060EF70E08FEBBF
:102D600091E00E94AB2740EC50E060E370E0C801C6
:102D70000E94AB2738CD0E94EA066DEC74E08FEE1E
:102D800091E09CD2C058DE4F0FB6F894DEBF0FBE64
:102D9000CDBFDF91CF911F910F91FF90EF90DF900A
:102DA000CF90BF90AF909F908F907F906F905F90EB
:102DB0004F903F902F90089588E290E061D86AE9A3
:102DC00079E989E790E40E94170880E090E0AC017F
:102DD000405B5F4F9C01220F331F220F331FF9010D
:102DE000E154FE4F5183408353834283F901E157FD
:102DF000FE4F2DEC3CEC4CE85FE3208331834283B3
:102E0000538301968C30910511F7FE013196408273
:102E100051826282738244825582668277824486BE
:102E200055866686778680E090E0A0EAB1E48087E8
:102E30009187A287B38780E090E0DF01A80FB91FD8
:102E40002AE939E949E95FE350962D933D934D9383
:102E50005C93539704968033910579F7E05CFF4FBC
:102E6000E017F107A1F640E350E060EF70E08FEB70
:102E700091E00E94AB2740E350E060E070E08FE813
:102E800091E00E94AB2740EC50E060E370E0CE019F
:102E900001960E94AB270E94EA06A5CC41E062E0C1
:102EA0008FEE91E097D48AE391E00E94B4279BCC07
:102EB00088D999CCCF938FEE91E0FCD0669B07C068
:102EC0008FEE91E0FAD018161906C4F0C1C02FEFAA
:102ED00082E597E0215080409040E1F700C000007B
:102EE0006699EECF67E276E08FEE91E0E7D16699E2
:102EF000E7CF25E02A95F1F70000F9CF8FEE91E0BA
:102F0000EAD0FC01FF27E156F109EA31F10508F0AA
:102F100098C0E657FF4F0C94EC246FE176E08FEEFB
:102F200091E0CCD10E94440891C068E176E08FEE38
:102F300091E0C4D10E94680889C060E176E08FEE1C
:102F400091E0BCD10E94790881C061E076E08FEE0B
:102F500091E0B4D1F8948F9885E08A95F1F700005C
:102F600080E10E941D048FEF0E941D0480E10E94F9
:102F70001D0483E30E941D0495E09A95F1F700007B
:102F80008F9A25E02A95F1F700007894C5E062E376
:102F900070E081E00E94390A60E070E082E00E9407
:102FA000390A85E88A95F1F7000088E790E00E94E9
:102FB0001D089FEF23EC89E0915020408040E1F70D
:102FC00000C00000C15019F70E946C0A3FC065EFB5
:102FD00075E08FEE91E072D10E94F0089FEF23EC34
:102FE00089E0915020408040E1F700C000000E943D
:102FF000E1080E94E1089FEF23EC89E09150204016
:103000008040E1F700C0000021C0C0DB1FC06FEDB1
:1030100075E08FEE91E052D119C060E080E00E942F
:10302000700F14C040E001C041E060E080E00E9409
:10303000740A0CC00E944D0F09C080E00E942C0D44
:1030400005C0682F8FEE91E05DD1BBD8CF91B9C894
:10305000CF9108950E94D22180E492E00E9406213F
:103060000E94190927DFFECFCF93DF931F92CDB7C0
:10307000DEB76983DC01ED91FC910280F381E02DE4
:1030800041E050E0BE016F5F7F4F09950F90DF91E7
:10309000CF910895CF93DF93EC018C859D8597FFA9
:1030A00004C082E0A4D59D878C878C859D85DF91A7
:1030B000CF91089583E00C947C20FC018485958554
:1030C00097FD05C082E03DD590E00196089582E02D
:1030D00038D590E00895FC018485958597FD05C05D
:1030E0002FEF3FEF35872487089582E080C5CF9387
:1030F000DF93EC0180911301882329F083E0A6D5AA
:103100001816190634F081E090E09B838A8380E0F2
:1031100090E0DF91CF910895FC0120812E5F208304
:1031200042E450E069E776E080E831C6FC012181A5
:103130008081813A51F4213209F049C047E050E0E2
:103140006CE071E080E023D65DC0813209F03FC0C1
:10315000233289F4838190E0982F88273281832B52
:10316000A0E0B0E08093080190930901A0930A01C8
:10317000B0930B010EC0203231F467E070E08CE0B8
:1031800091E035D609C0223221F482818093130167
:1031900003C02D7F2032B1F580913F02811103C021
:1031A000E0E0F8E002C0EEEFFAE080910C019091CF
:1031B0000D01A0910E01B0910F01803B9440A1053B
:1031C000B10511F58091130180FF03C01DC080E09F
:1031D0000895EE3F2AE0F20731F0808191819093CB
:1031E000FF0A8093FE0A87E797E7918380832BE0AD
:1031F00088E190E00FB6F894A895809360000FBE28
:103200002093600081E0089588E10FB6F8948093E0
:103210006000109260000FBEA895EE3F8AE0F807AC
:1032200039F08091FE0A9091FF0A91838083EACF62
:103230001092FF0A1092FE0AE5CF2FEF3FEFFC013C
:103240003587248708951092F2011092F10188EEDB
:1032500093E0A0E0B0E08093F3019093F401A09399
:10326000F501B093F60189E391E09093F00180932A
:10327000EF018FEF9FEF9093FC018093FB01089586
:10328000DC01ED91FC910190F081E02D642F099417
:103290006115710581F0DB010D900020E9F7AD01AA
:1032A00041505109461B570BDC01ED91FC91028006
:1032B000F381E02D099480E090E00895EF92FF9271
:1032C0000F931F93CF93DF938C017B01C0E0D0E07D
:1032D000F701EC0FFD1F6491662359F0F801A081FE
:1032E000B181ED91FC91C8010995892B11F02196CE
:1032F000EFCFCE01DF91CF911F910F91FF90EF9013
:103300000895C6CFDC01ED91FC910190F081E02D94
:10331000099462E371E0BCCF0F931F93CF93DF93C7
:10332000EC01CCDF8C01CE01F4DF800F911FDF9127
:10333000CF911F910F9108958F929F92AF92BF925C
:10334000DF92EF92FF920F931F93CF93DF93CDB74E
:10335000DEB7A1970FB6F894DEBF0FBECDBF7C01DC
:10336000F42FD52ECB0119A2223008F42AE08E01C9
:103370000F5D1F4F822E912CA12CB12C6F2F7D2D14
:10338000A50194010E948D23F22FD32ECA01015072
:1033900011096A3014F4E0E301C0E7E3E60FD80155
:1033A000EC93232B242B252B49F7B801C70170DFA1
:1033B000A1960FB6F894DEBF0FBECDBFDF91CF91BF
:1033C0001F910F91FF90EF90DF90BF90AF909F9073
:1033D0008F900895CF92DF92EF92FF920F931F93F9
:1033E000CF93DF93EC016A017B012115310579F45C
:1033F000E881F9810190F081E02D642FDF91CF9178
:103400001F910F91FF90EF90DF90CF9009942A3099
:103410003105D9F477FF18C06DE274DF8C014427C1
:103420005527BA014C195D096E097F092AE0CE01C2
:1034300083DF800F911FDF91CF911F910F91FF903C
:10344000EF90DF90CF9008952AE0B701A601CE015A
:10345000DF91CF911F910F91FF90EF90DF90CF9070
:103460006BCF9A01AB01662757FD6095762FB2CFDF
:103470000F931F93CF93DF93EC019A01AB01662763
:1034800057FD6095762FA6DF8C01CE0142DF800FBD
:10349000911FDF91CF911F910F9108950F931F936B
:1034A000CF93DF93EC0196DF8C01CE0132DF800FEA
:1034B000911FDF91CF911F910F9108952115310533
:1034C00009F4DECE39CF9A01462F50E060E070E07B
:1034D000F5CF0F931F93CF93DF93EC019A01462F03
:1034E00050E060E070E0EADF8C01CE0112DF800F77
:1034F000911FDF91CF911F910F9108959A01AB0118
:1035000060E070E0DBCF0F931F93CF93DF93EC016C
:103510009A01AB0160E070E0D1DF8C01CE01F9DEF1
:10352000800F911FDF91CF911F910F9108954F92BE
:103530005F926F927F92BF92CF92DF92EF92FF9253
:103540000F931F93CF93DF93EC016A017B01B22E9F
:103550009A01AB01C701B6010E947027882319F0B8
:1035600065E471E027C026013701E89477F82FEF72
:103570003FEF4FE75FE7C301B2010E94702781115F
:103580000DC02FEF3FEF4FE75FE7C301B2010E948D
:10359000782518161CF469E471E00CC02FEF3FEF9A
:1035A0004FE75FE4C701B6010E94C72618168CF4E6
:1035B0006DE471E0CE01DF91CF911F910F91FF90EB
:1035C000EF90DF90CF90BF907F906F905F904F9083
:1035D0005FCE2FEF3FEF4FE75FECC701B6010E94D0
:1035E000782587FDE5CF20E030E0A901C701B601CD
:1035F0000E94782587FF09C06DE2CE0183DE8C0131
:10360000F7FAF094F7F8F09402C000E010E0712CA3
:1036100060E070E080E09FE37B1441F020E030E068
:1036200040E251E40E947C257394F6CF9B01AC01EB
:10363000C701B6010E9414256B017C010E94E92597
:103640002B013C010E9415269B01AC01C701B6016C
:103650000E9413256B017C012AE0B301A201CE0177
:103660006BDE080F191FBB2029F06EE2CE014ADE87
:10367000080F191FBB2021F120E030E040E251E4A7
:10368000C701B6010E94CB266B017C010E94E9258F
:103690002B01612C712C2AE0B301A201CE014CDE7A
:1036A000080F191FC301B2010E9415269B01AC012E
:1036B000C701B6010E9413256B017C01BA94DACFD1
:1036C000C801DF91CF911F910F91FF90EF90DF9094
:1036D000CF90BF907F906F905F904F90089527CFCD
:1036E0000F931F93CF93DF93EC0121DF8C01CE0169
:1036F00010DE800F911FDF91CF911F910F910895E0
:103700000F931F93CF93DF93EC01E6D568877987FA
:103710008A879B87E881F9810084F185E02DCE01BD
:10372000099597FF14C0D8D5088519852A853B854A
:10373000601B710B820B930B0C811D812E813F81CD
:10374000601771078207930728F38FEF9FEFDF91D0
:10375000CF911F910F9108950F931F93CF93DF93F4
:10376000EC01162F042FCE01CBDF9C0197FD26C064
:103770008D32910509F1C0970A9700F1002319F0E5
:103780002E323105E9F01130F1F0123069F42D30AC
:10379000310551F034F4295031092230310520F03F
:1037A00012C02032310579F4E881F9810680F78171
:1037B000E02DCE010995D7CF8DE203C0C90105C028
:1037C0008EE290E002C08FEF9FEFDF91CF911F91CB
:1037D0000F910895CF92DF92FF920F931F93CF9393
:1037E000DF9300D000D0CDB7DEB76C01042F40E0EE
:1037F000B3DFFC0197FD49C020E030E0A901F12CC6
:10380000112707FD1095E017F107E1F0ED32F10502
:10381000B9F0CF01C0970A97A8F4AAE0B0E05ED74C
:103820009B01AC01CF01AA2797FDA095BA2F280FC5
:10383000391F4A1F5B1F205331094109510902C03A
:10384000FF24F394D601ED91FC910680F781E02DE1
:10385000C60129833A834B835C830995C60150DFF7
:10386000FC01C09729813A814B815C810A9758F20B
:10387000E017F10741F2FF2061F066277727CB01BF
:10388000621B730B840B950B06C060E070E0CB01EC
:1038900002C0CA01B9010F900F900F900F90DF91F5
:1038A000CF911F910F91FF90DF90CF9008956F926D
:1038B0007F928F929F92AF92BF92CF92DF92EF92C0
:1038C000FF920F931F93CF93DF93EC01042F41E0FE
:1038D00043DFFC0197FD72C0812C912C80E8A82E5B
:1038E0008FE3B82EC12CD12C7601712C612C1127BD
:1038F00007FD1095E017F10789F1ED32F10549F167
:10390000EE32F10549F1CF01C0970A9738F5AAE0E8
:10391000B0E0A7019601E2D66B017C01CF01AA2796
:1039200097FDA095BA2FC80ED91EEA1EFB1E80E394
:10393000C81AD108E108F108772081F02DEC3CECA1
:103940004CEC5DE3C501B4010E94CB264B015C0148
:1039500005C06624639402C077247394E881F981DA
:103960000680F781E02DCE010995CE01C9DEFC016C
:10397000C0970A9708F4BECFEE32F10519F477200C
:1039800009F4B8CFE017F10709F4B4CF662041F08D
:10399000F094E094D094C094C11CD11CE11CF11CA3
:1039A000C701B601772039F00E941726A5019401BE
:1039B0000E94CB2606C00E94172603C060E070E07C
:1039C000CB01DF91CF911F910F91FF90EF90DF908E
:1039D000CF90BF90AF909F908F907F906F90089501
:1039E000615030F02091F100FC0120830196F8CF66
:1039F000289884E6809349020895409144025091AA
:103A00004502209142023091430242175307B4F419
:103A10009091E8009570E1F39091E80092FD19C053
:103A20008093F100809144029091450201968F733A
:103A30009927892B19F48EEF8093E8008091440236
:103A4000909145020196909345028093440281E053
:103A5000089580E00895CF92DF92EF92FF920F9346
:103A60001F93CF93DF931F92CDB7DEB7082F162F8A
:103A7000F42E862F880F8E5F9983BFDF83E0BDDF32
:103A8000E02EC02E9981D92E8C2D8E19811788F4A5
:103A9000F601F7FE02C0849101C08081AEDF082FDD
:103AA00080E0ABDF8023FFEFCF1ADF0A8111ECCF7C
:103AB00001C081E00F90DF91CF911F910F91FF9096
:103AC000EF90DF90CF9008958091D7008160809330
:103AD000D70080EA8093D80089B5806189BD89B517
:103AE000826089BD09B400FEFDCF61E070E080E036
:103AF00090E021D48091D8008F7C80618093D800A1
:103B00008091E000807F8093E0000895CF93DF9361
:103B10001F92CDB7DEB71982CE010196FDDAC9D565
:103B2000BE016F5F7F4F3ED589810F90DF91CF91AE
:103B300008952FB7FC012083F89467706093E90023
:103B40000895CF93DF931F92CDB7DEB7682FCE01D4
:103B50000196EFDF8091F20099819FBF0F90DF9176
:103B6000CF910895FF920F931F93CF93DF9300D0CF
:103B7000CDB7DEB7F62E8A0190914802992311F055
:103B800057FF03C08FEF9FEF2AC0682FCE01019629
:103B90007A83CFDF8091F20090E0A8017A818017CC
:103BA00091070CF4AC01EF2DF72FF40E84E6FE160E
:103BB00039F02898809349029091F1009193F7CFC2
:103BC0004115510521F08091F200882321F089816F
:103BD0008FBFCA0104C08BE68093E800F8CF0F9036
:103BE0000F90DF91CF911F910F91FF900895CF9388
:103BF000DF931F92CDB7DEB741E050E0BE016F5FAB
:103C00007F4FB0DF019719F4898190E002C08FEFF8
:103C10009FEF0F90DF91CF910895CF93DF931F9285
:103C2000CDB7DEB7682FCE01019683DF9091E80013
:103C3000892F807295FF04C09091F2008FE3891B59
:103C400099819FBF0F90DF91CF9108956F927F92DE
:103C50008F929F92AF92BF92CF92DF92EF92FF929C
:103C60000F931F93CF93DF931F92CDB7DEB7782EBC
:103C70007B01C42EB52E80914802811103C08FEFC5
:103C80009FEF6AC08091460280FF05C08091E000EE
:103C900082608093E0000C2D1B2D8AEFD82E872D9B
:103CA0008072982E9AE3A92E872D8074882E011594
:103CB000110509F447C0872DB0DF682E811108C0B7
:103CC000DA94E9F261E070E080E090E034D3EFCF85
:103CD000282F30E0021713070CF4602E672DCE0159
:103CE000019627DF8091E80085FF29C0262D30E06E
:103CF000021B130B992039F06A948FEF6816B1F00C
:103D00001092F100F9CFF701862D77FE07C08150A0
:103D100058F094919093F1003196F9CF815020F0B2
:103D200091919093F100FACFE20EF31E8091E8009A
:103D300085FF0FC00115110511F481100AC089819A
:103D40008FBFB5CF5D9884E680934A028C2D9B2D62
:103D500003C0A092E800F3CF0F90DF91CF911F91A5
:103D60000F91FF90EF90DF90CF90BF90AF909F901A
:103D70008F907F906F9008951092E9001092450205
:103D80001092440290934302809342020895CF928E
:103D9000DF92FF920F931F93CF93DF9300D0CDB7A5
:103DA000DEB7F82E8A016B0101151105A9F0F601A5
:103DB000F7FE02C0849101C0808149835A831DDED1
:103DC00001501109FFEFCF1ADF0A49815A81811191
:103DD000EBCF8FEF9FEF01C0CA010F900F90DF91E3
:103DE000CF911F910F91FF90DF90CF900895BF92D8
:103DF000CF92DF92EF92FF920F931F93CF93DF93B7
:103E00006C018B01EB013BEFB32E2097B9F07E01E3
:103E1000C134D1051CF020E4E22EF12C8091E800A1
:103E200082FFFCCFC8018C1B9D0B6E2D8C0D9D1D40
:103E3000D7DDB092E800CE19DF09E7CFC801DF91E6
:103E4000CF911F910F91FF90EF90DF90CF90BF9097
:103E500008951F920F920FB60F921124DF92EF92E6
:103E6000FF920F931F932F933F934F935F936F9303
:103E70007F938F939F93AF93BF93EF93FF93CF93D2
:103E8000DF93CDB7DEB76C97DEBFCDBF1092E900F0
:103E90008091E80083FF12C168E0CE014596A0DD65
:103EA00082EF8093E8003D8937FF05C08091E800EC
:103EB00080FFFCCF03C08EEF8093E800832F8076D5
:103EC00009F0E4C02E894F89D88C21110CC03038FC
:103ED00029F4809147028093F10002C01092F10012
:103EE0001092F100E4C0842F90E09D29213049F424
:103EF0003111DDC0019709F0DAC0809147028D7F52
:103F00000AC0233059F43111D2C0019709F0CFC053
:103F100080914702826080934702C9C0253041F4F6
:103F20008091E80080FFFCCF40684093E300BFC071
:103F3000263009F081C0EB8CFC8C22E0D21227C025
:103F400080E090E019DFE2DD99E08E010F5F1F4F06
:103F5000F801292F11922A95E9F79983DA8291E0E5
:103F60009E8390EA98879AEF998720914402309136
:103F70004502275F3F4F3C832B838D83C701FCDEC7
:103F800049E050E0B80180E002DFC0DD90C0C70129
:103F9000F3DE8FD3BE016B5E7F4F2DD3009719F0F8
:103FA0000CF085C088C081E0D8120EC08B8D9C8D2E
:103FB000089719F481E080934102809141028111B8
:103FC0002CC06DEC76E02EC0E3E0DE1274C08F8969
:103FD000882331F1823029F440E86CE08FEE96E0DE
:103FE0001AC0813029F440E86FE08FED96E013C0ED
:103FF000833009F060C05DD38E010F5F1F4FB801A1
:1040000019D3F80101900020E9F73197E01BF10B7B
:1040100040E06E2FC8011FDD48C06BEB76E002C0A8
:104020006CEF76E06115710509F445C0FB01449120
:1040300050E080E8ACDE3BC0273009F43CC02830BB
:1040400021F481E08093F10032C0293081F5337092
:1040500091F5E5E1F1E081E021E036E390819923FB
:1040600061F08093E9002093EB0091919093EC0034
:104070003093ED008F5F873089F78EE78093EA00F9
:104080001092EA008F898093480211C08B8D9C8D1D
:1040900073DE898D811104C0CE01459647D805C0D5
:1040A00008D3BE016B5E7F4FE4D2882321F08EEFF0
:1040B0008093E80003C081E28093EB006C960FB61A
:1040C000F894DEBF0FBECDBFDF91CF91FF91EF918E
:1040D000BF91AF919F918F917F916F915F914F9120
:1040E0003F912F911F910F91FF90EF90DF900F90D4
:1040F0000FBE0F901F9018958093E9008091F200F9
:10410000882319F08AE38093E80008951F920F92A4
:104110000FB60F9211242F933F934F935F936F939A
:104120007F938F939F93AF93BF93CF93EF93FF931F
:10413000C091E1008091E100837F8093E100C3FFA3
:104140000FC01092E90081E08093EB001092EC0028
:1041500082E38093ED001092480288E08093F000A3
:10416000C2FF18C083E0C8DF80914A02882339F07B
:1041700080914A02815080934A02882389F180917C
:104180004902882339F08091490281508093490285
:10419000882341F1C4FF10C08091E2008E7E8160CF
:1041A0008093E2008091E1008F7E8093E100809116
:1041B00046028E7E806111C0C0FF16C08091E20071
:1041C0008E7E80618093E2008091E1008E7E8093FC
:1041D000E100809146028E7E81608093460204C099
:1041E0005D9ACDCF289AD6CFFF91EF91CF91BF9115
:1041F000AF919F918F917F916F915F914F913F917F
:104200002F910F900FBE0F901F901895109248029B
:10421000109247021092460257DC8091E1008E7E98
:104220008093E1008DE08093E200559A209AEEEFB2
:10423000FFE7859194918B3F9C4D19F481E0809329
:104240003F0208951F920F920FB60F9211242F93E1
:104250003F938F939F93AF93BF9380914C02909124
:104260004D02A0914E02B0914F0230914B0223E0DB
:10427000230F2D3720F40196A11DB11D05C026E89E
:10428000230F0296A11DB11D20934B0280934C0277
:1042900090934D02A0934E02B0934F028091500232
:1042A00090915102A0915202B09153020196A11D2A
:1042B000B11D8093500290935102A0935202B0938B
:1042C0005302BF91AF919F918F913F912F910F908A
:1042D0000FBE0F901F9018952FB7F89460914C0265
:1042E00070914D0280914E0290914F022FBF089520
:1042F0003FB7F8948091500290915102A0915202E0
:10430000B091530226B5A89B05C02F3F19F0019626
:10431000A11DB11D3FBF6627782F892F9A2F620FED
:10432000711D811D911D42E0660F771F881F991F27
:104330004A95D1F708958F929F92AF92BF92CF92F4
:10434000DF92EF92FF926B017C01D2DF4B015C01A7
:10435000C114D104E104F104E1F0BFD1C9DF68194F
:1043600079098A099B09683E73408105910580F3AC
:1043700021E0C21AD108E108F10888EE880E83E036
:10438000981EA11CB11CC114D104E104F10431F741
:10439000DFCFFF90EF90DF90CF90BF90AF909F90D6
:1043A0008F900895789484B5826084BD84B58160CF
:1043B00084BD85B5826085BD85B5816085BDEEE62D
:1043C000F0E0808181608083E1E8F0E0108280810C
:1043D00082608083808181608083E0E8F0E080817A
:1043E00081608083E1E9F0E0808182608083808168
:1043F00081608083E0E9F0E0808181608083E1EC8E
:10440000F0E080818460808380818260808380810D
:1044100081608083E3ECF0E0808181608083E0EC68
:10442000F0E0808182608083E2ECF0E08081816056
:104430008083EAE7F0E0808184608083808182600D
:1044400080838081816080838081806880830895FB
:1044500090E0FC013197EF30F105A8F5EC55FF4FE6
:10446000BBC2809180008F7703C0809180008F7DD8
:1044700080938000089580918000877FF9CF84B574
:104480008F7702C084B58F7D84BD089580919000A0
:104490008F7707C0809190008F7D03C0809190003E
:1044A000877F8093900008958091C0008F7703C02C
:1044B0008091C0008F7D8093C00008958091C200DC
:1044C000877F8093C2000895CF93DF9390E0FC0133
:1044D000E15EF84F2491FC01E25CF84F849188235F
:1044E00049F190E0880F991FFC01E559F84FA5911B
:1044F000B491835A984FFC01C591D4919FB7611133
:1045000008C0F8948C91209582238C938881822313
:104510000AC0623051F4F8948C91322F3095832385
:104520008C938881822B888304C0F8948C91822B91
:104530008C939FBFDF91CF9108950F931F93CF93DB
:10454000DF931F92CDB7DEB7282F30E0F901E0509E
:10455000F94F8491F901E15EF84F1491F901E25CA1
:10456000F84F04910023C1F0882319F0698370DFAC
:104570006981E02FF0E0EE0FFF1FE35AF84FA5919D
:10458000B4919FB7F8948C91611103C01095812369
:1045900001C0812B8C939FBF0F90DF91CF911F9112
:1045A0000F910895EF92FF920F931F93CF93DF9394
:1045B0007B01FC01C281D38100E010E0209781F0F3
:1045C000E881F9810280F381E02DB701CE010995E0
:1045D00097FD08C0080F191F0884D985C02DEECF9C
:1045E000C80102C08FEF9FEFDF91CF911F910F9114
:1045F000FF90EF9008950F931F93CF93DF938B015C
:10460000FC01C281D381209771F0E881F981048097
:10461000F581E02DB801CE010995009731F40884A9
:10462000D985C02DF0CF80E090E0DF91CF911F9130
:104630000F9108950F931F93CF93DF938B01FC018C
:10464000C281D381209771F0E881F9810680F781DA
:10465000E02DB801CE010995080F111D0884D985F8
:10466000C02DF0CFF8011082DF91CF911F910F91F3
:1046700008950F931F93CF93DF938B01FC01C281A9
:10468000D381209771F0E881F9810190F081E02DCC
:10469000B801CE010995811106C00884D985C02DC5
:1046A000F0CF80E001C081E0DF91CF911F910F91A9
:1046B00008958091580281110DC082E080935402C8
:1046C00084E080935502109257021092560281E0C6
:1046D0008093580284E592E00895089595D1A59FAE
:1046E000900DB49F900DA49F800D911D11240895ED
:1046F000B7FFF4CFF3DF821B930B0895DB018F9399
:104700009F93ECDFBF91AF91A29F800D911DA39F5E
:10471000900DB29F900D11240895A1E21A2EAA1BAC
:10472000BB1BFD010DC0AA1FBB1FEE1FFF1FA21761
:10473000B307E407F50720F0A21BB30BE40BF50B5E
:10474000661F771F881F991F1A9469F760957095E7
:10475000809590959B01AC01BD01CF010895052E78
:1047600097FB16F40094E9D057FD05D0D6DF07FC7F
:1047700002D046F4E2C050954095309521953F4FC8
:104780004F4F5F4F0895689401C0E894F92FF12BC3
:104790000AF027C0A0E0B0E0EFECF3E2ECC0092E95
:1047A00005941AF4D2D0112392F4F0E80F26FFEF0B
:1047B000E094F09400951095B094C094D094A19496
:1047C000BF0ACF0ADF0AEF0AFF0A0F0B1F0B64D0E4
:1047D00007FCBBD0CDB7DEB7ECE0E9C0689401C000
:1047E000E8948F929F92CF93DF9356D0DF91CF9131
:1047F0009F908F900895DF93CF931F930F939A9D6F
:10480000F02D219FF00D8B9DF00D8A9DE02DF10D77
:10481000039FF00D029FE00DF11D4E9DE00DF11D77
:104820005E9DF00D4F9DF00D7F936F93BF92AF9201
:104830005F934F93D501E8D08B01AC01D701E4D051
:10484000EB01E80FF91FD6011FD02F913F91D60140
:10485000DBD0C60FD71FE81FF91FAF91BF9114D04F
:104860002F913F91D1D0C60FD71FE81FF91FD60156
:10487000CBD0E60FF71F9801BE01CF0111240F9195
:104880001F91CF91DF910895BFD0460F571FC81FCA
:10489000D91F08F43196089588249924F401E4017D
:1048A000B0E49F93AA279A158B049C04ED05FE059E
:1048B000CF05D007A10798F4AD2FDC2FCF2FFE2F07
:1048C000E92D982C892E982F872F762F652F542F1E
:1048D000432F322F2227B85031F7BF9127C01B2E0C
:1048E000BF91BB27220F331F441F551F661F771F21
:1048F000881F991F881C991CEE1FFF1FCC1FDD1FEE
:10490000AA1FBB1F8A149B04EC05FD05CE05DF051D
:10491000A007B10748F08A189B08EC09FD09CE09E9
:10492000DF09A00BB10B21601A94E1F62EF494017B
:10493000AF01BE01CD01000C089590958095709552
:1049400061957F4F8F4F9F4F08956095709580952B
:10495000909530954095509521953F4F4F4F5F4F23
:104960006F4F7F4F8F4F9F4F08952F923F924F92DF
:104970005F926F927F928F929F92AF92BF92CF92EF
:10498000DF92EF92FF920F931F93CF93DF93CDB7F8
:10499000DEB7CA1BDB0B0FB6F894DEBF0FBECDBF70
:1049A00009942A88398848885F846E847D848C8441
:1049B0009B84AA84B984C884DF80EE80FD800C814A
:1049C0001B81AA81B981CE0FD11D0FB6F894DEBF2D
:1049D0000FBECDBFED010895EE0FFF1F0590F491BE
:1049E000E02D09942A0D3B1D4C1D5D1D6E1D7F1D84
:1049F000801F911F08952A193B094C095D096E0912
:104A00007F09800B910B0895A29FB001B39FC00155
:104A1000A39F700D811D1124911DB29F700D811DEA
:104A20001124911D08955058BB27AA270ED075C197
:104A300066D130F06BD120F031F49F3F11F41EF4B9
:104A40005BC10EF4E095E7FB51C1E92F77D180F30C
:104A5000BA17620773078407950718F071F49EF57B
:104A60008FC10EF4E0950B2EBA2FA02D0B01B901CA
:104A700090010C01CA01A0011124FF27591B99F0D4
:104A8000593F50F4503E68F11A16F040A22F232FE0
:104A9000342F4427585FF3CF469537952795A79530
:104AA000F0405395C9F77EF41F16BA0B620B730BD7
:104AB000840BBAF09150A1F0FF0FBB1F661F771F48
:104AC000881FC2F70EC0BA0F621F731F841F48F4FD
:104AD000879577956795B795F7959E3F08F0B3CF83
:104AE0009395880F08F09927EE0F9795879508956D
:104AF000D9D008F481E008950CD00FC107D140F05F
:104B0000FED030F021F45F3F19F0F0C0511139C1EF
:104B1000F3C014D198F39923C9F35523B1F3951B2E
:104B2000550BBB27AA2762177307840738F09F5FCE
:104B30005F4F220F331F441FAA1FA9F333D00E2E3D
:104B40003AF0E0E830D091505040E695001CCAF7AA
:104B500029D0FE2F27D0660F771F881FBB1F26176F
:104B600037074807AB07B0E809F0BB0B802DBF0142
:104B7000FF2793585F4F2AF09E3F510568F0B6C05B
:104B800000C15F3FECF3983EDCF38695779567951F
:104B9000B795F7959F5FC9F7880F911D96958795F3
:104BA00097F90895E1E0660F771F881FBB1F621712
:104BB00073078407BA0720F0621B730B840BBA0BD0
:104BC000EE1F88F7E095089504D06894B111D9C01C
:104BD0000895BCD088F09F5790F0B92F9927B7510E
:104BE000A0F0D1F0660F771F881F991F1AF0BA95B1
:104BF000C9F712C0B13081F0C3D0B1E00895C0C090
:104C0000672F782F8827B85F39F0B93FCCF38695A6
:104C100077956795B395D9F73EF490958095709503
:104C200061957F4F8F4F9F4F0895E89409C097FB80
:104C30003EF490958095709561957F4F8F4F9F4F73
:104C40009923A9F0F92F96E9BB279395F6958795B7
:104C500077956795B795F111F8CFFAF4BB0F11F47A
:104C600060FF1BC06F5F7F4F8F4F9F4F16C0882321
:104C700011F096E911C0772321F09EE8872F762F57
:104C800005C0662371F096E8862F70E060E02AF098
:104C90009A95660F771F881FDAF7880F9695879584
:104CA00097F90895990F0008550FAA0BE0E8FEEF59
:104CB00016161706E807F907C0F012161306E407E0
:104CC000F50798F0621B730B840B950B39F40A26D9
:104CD00061F0232B242B252B21F408950A2609F4B7
:104CE000A140A6958FEF811D811D089597F99F67BB
:104CF00080E870E060E008959FEF80EC0895002464
:104D00000A941616170618060906089500240A9430
:104D100012161306140605060895092E0394000CB6
:104D200011F4882352F0BB0F40F4BF2B11F460FF45
:104D300004C06F5F7F4F8F4F9F4F089557FD90586E
:104D4000440F551F59F05F3F71F04795880F97FB4F
:104D5000991F61F09F3F79F0879508951216130609
:104D60001406551FF2CF4695F1DF08C01616170638
:104D70001806991FF1CF869571056105089408956D
:104D8000E894BB2766277727CB0197F908958ADF38
:104D900008F48FEF08950BD0C0CFB1DF28F0B6DF55
:104DA00018F0952309F0A2CFA7CF1124EACFC6DFD0
:104DB000A0F3959FD1F3950F50E0551F629FF0012E
:104DC000729FBB27F00DB11D639FAA27F00DB11D87
:104DD000AA1F649F6627B00DA11D661F829F222710
:104DE000B00DA11D621F739FB00DA11D621F839F97
:104DF000A00D611D221F749F3327A00D611D231F6D
:104E0000849F600D211D822F762F6A2F11249F57BA
:104E100050408AF0E1F088234AF0EE0FFF1FBB1FDD
:104E2000661F771F881F91505040A9F79E3F51057C
:104E300070F05CCFA6CF5F3FECF3983EDCF3869535
:104E400077956795B795F795E7959F5FC1F7FE2B27
:104E5000880F911D9695879597F9089511F40EF492
:104E60004BCF42C073DFD0F39923D9F3CEF39F57D2
:104E7000550B87FF47D00024A0E640EA90018058F8
:104E80005695979528F4805C660F771F881F20F051
:104E900026173707480730F4621B730B840B202951
:104EA00031294A2BA69517940794202531254A27A6
:104EB00058F7660F771F881F20F026173707480717
:104EC00030F4620B730B840B200D311D411DA09536
:104ED00081F7B901842F9158880F96958795089589
:104EE000E1DE880B990B08959F3F31F0915020F43B
:104EF000879577956795B795880F911D96958795B6
:104F000097F9089591505040660F771F881FD2F788
:104F10000895DC01CB01FC01F999FECF06C0F2BD7A
:104F2000E1BDF89A319600B40D9241505040B8F767
:104F30000895F999FECF92BD81BDF89A992780B561
:104F40000895A6E1B0E044E050E0E5CFA8E1B0E08C
:104F500042E050E0E0CFDC01CB0102C02D9105D052
:104F600041505040D8F70895262FF999FECF1FBA27
:104F700092BD81BD20BD0FB6F894FA9AF99A0FBE82
:104F800001960895242FF1DF252FEFDF00C0ECDF1D
:084F9000272FEBCFF894FFCFAF
:104F98000000600220005C04FFFFFFFF00E100004A
:104FA8000000000000C1808100000030780030005F
:104FB8004C45442000207374696C6C206973206F21
:104FC8006E210D0A0000000000341877185D186B78
:104FD800184A185A186E616E00696E66006F766618
:024FE8000000C7
:00000001FF
