:10000000BCC30000E2C30000E0C30000DEC3000088
:10001000DCC30000DAC30000D8C30000D6C3000070
:10002000D4C30000D2C300000C94B5200C94581F18
:10003000CCC30000CAC30000C8C30000C6C3000090
:10004000C4C30000F8C50000C0C30000BEC3000068
:10005000BCC3000023C60000B8C300000C945121AB
:10006000B4C30000B2C30000B0C30000AEC30000C0
:10007000ACC30000AAC30000A8C30000A6C30000D0
:10008000A4C30000A2C30000A0C300009EC30000E0
:100090009CC300009AC3000098C3000096C30000F0
:1000A00094C3000092C3000090C300000D13E81336
:1000B0004911E813C511E813E813E813E813E8132E
:1000C000FE11AB1340127F12E813E813E813E81394
:1000D000E311E813E813E813E813AA11E813EE118B
:1000E0005B146A144A160017DF1682147B148717F4
:1000F000381687178717871787178D14C01483152D
:100100008717CD16CF164414871787172F14721729
:1001100087173B164C181618CC174318361850186A
:1001200050185018491850185018501841185018A5
:1001300050185018341850183C1850185018D4172C
:100140005018C4175018BC176E2271226022642206
:100150006A22922292229222752279227D22832281
:10016000872292228D22783D692C53455249414C79
:100170002C00783D692C545950452C000D0A002C58
:10018000002C002C002C004574616C6F6E232C2019
:1001900067315F312C2067325F312C2067325F324C
:1001A0002067325F32000D0A507265616D70204425
:1001B0006174613A0D0A000D0A002C002C004C45B8
:1001C00044232C204931286D41292C204932286DA7
:1001D00041290D0A000D0A43757272656E74733AF7
:1001E0000D0A000D0A496E5265733A20000D0A503F
:1001F00057696474682069733A20005479706520E7
:100200000053657269616C206E756D6265723A208B
:1002100000646174612066726F6D20454550524FD5
:100220004D2E0D0A002C004C4544232C6B0D0A006A
:100230004C4544232C41692C0D0A000D0A4176657A
:10024000726167652076616C7565732E0D0A002CEE
:10025000002C004C4544232C6B2C55616D70286D8F
:1002600056290D0A004C4544232C41692C55616DDB
:1002700070286D56290D0A00596F7520617265202E
:10028000696E206D6561737572656D656E7473203E
:100290006D6F6465210D0A002C002C004C45442331
:1002A0002C6B2C55616D70286D56290A00436F65C3
:1002B0006666696369656E74732061726520726534
:1002C00061647920746F20736176652E0D0A005386
:1002D0006574206574616C6F6E2023200D0A0059CF
:1002E0006F752061726520696E206D65617375722E
:1002F000656D656E7473206D6F6465210D0A0078FD
:100300003D650A002C002C00783D642C00783D737C
:100310002C454E442C31002C00783D732C44415424
:10032000412C002C00783D732C4C45442C00783D2A
:10033000732C53544152542C31002C2041206973AA
:1003400020004169232000496620706172616D734D
:10035000206973206F6B202D2070726573732022CB
:1003600079222E0A466F722072657365742070724E
:1003700065737320616E79206B65792E0D0A000D0F
:100380000A002C20002C20002C20004169232C2066
:1003900050726576696F7573202C20437572726593
:1003A0006E742C20446966662825290D0A0049666A
:1003B00020706172616D73206973206F6B202D2036
:1003C0007072657373202279222E0A466F72207232
:1003D0006573657420707265737320616E79206B2C
:1003E00065792E0A000A002C20002C20002C200009
:1003F0004169232C2050726576696F7573202C201B
:1004000043757272656E742C2044696666282529CE
:100410000A004D617820697320004D696E20697370
:1004200020002C206B20697320004C4544232000C1
:1004300043757272656E74206574616C6F6E2069AD
:10044000732000596F75206C65617665207468654E
:1004500020507265416D706C6966696572206361D8
:100460006C6962726174696F6E206D6F6465210AD8
:10047000476F6F64427965210053656C65637465ED
:1004800064204574616C6F6E2063656C6C206973C9
:100490002000536574206574616C6F6E2023200A00
:1004A00000596F752061726520696E205072654138
:1004B0006D706C69666965722063616C69627261F6
:1004C00074696F6E206D6F6465210D0A00596F7538
:1004D000206C65617665207468652063616C696273
:1004E000726174696F6E206D6F6465210A476F6F6A
:1004F00064427965210043757272656E74204C45C3
:100500004420697320002C206267643D20007369D9
:10051000673D20006D763D20002C206267643D2001
:10052000007369673D20006D763D20005468697353
:1005300020697320656E64206F662063616C696258
:10054000726174696F6E0D0A004669727374206C73
:100550006564206973206F6E210D0A00416C6C2068
:100560004C454473206973206F66662E0D0A4E6FEA
:100570007720796F752063616E2072657374617284
:10058000742063616C6962726174696F6E2E0D0A0A
:100590000053657420696E70757420726573697399
:1005A00074616E736520746F3A2000536574207017
:1005B000756C736520776964746820746F3A2000E5
:1005C000596F752061726520696E2063616C696284
:1005D000726174696F6E206D6F6465210D0A004E43
:1005E0006F7420696D706C656D656E7465642079DB
:1005F0006574200A00626C696E63746573740D0A19
:100600000070756C73650D0A66697273740D0A006B
:1006100066697273740D0A006E6578740D0A007253
:10062000657365740D0A00783D6D0A00446F6E6550
:10063000210D0A0A0052656164696E6720636F6E5E
:100640006669672E2E2E20003D0A1740A4700D40CB
:10065000713D0A400AD70340EC51F83F1F85EB3F3C
:10066000AE47E13FE17AD43F6666C63FAE47C13F41
:100670009A99B93F14AEA73F080B0002020201008D
:1006800009040000010202000005240010010524F5
:100690000101010424020605240600010705810367
:1006A00010004009040100020A00000007050202D0
:1006B0004000000705830240000012010002EF0223
:1006C00001404123368000010102030112010002B2
:1006D00000000040412336800001010203014C6507
:1006E00064204D6963726F73656E736F720055534A
:1006F0004220494F20426F617264000403090400E4
:1007000000000200090F0000030401000C000000BB
:1007100000000000000000000000000000000408CD
:1007200002011040804010204080408008020401F7
:10073000804020100201108010204040200404045A
:100740000404030405020202020403020202020678
:100750000606060606040402020204040000000065
:10076000250028002B002E0031000000000024008E
:1007700027002A002D003000521911241FBECFEF90
:10078000DAE0DEBFCDBF11E0A0E0B1E0E6EFFFE4CC
:1007900002C005900D92A235B107D9F712E0A2E58B
:1007A000B1E001C01D92A036B107E1F717E0CAE73A
:1007B000D7E004C02297FE010E941D25C837D1074B
:1007C000C9F70E9459180C94F9271ACCCF93CFB7C8
:1007D000F89480915201811127C0EEE4F7E08491F2
:1007E000EFE2F7E09491E82FF0E0EE0FFF1FE659FB
:1007F000F84FA591B4918C91892321F461E081E1B6
:100800000E94CC2261E081E10E9493228CB580613C
:100810008CBD8CB580648CBD61E08FE00E9493221A
:1008200061E080E10E949322809152018F5F80936A
:100830005201CFBFCF9108958EBD00000DB407FEC9
:10084000FDCF8EB508950CB405FC0DC09EBD000013
:100850000DB407FEFDCF9EB58EBD00000DB407FEA2
:10086000FDCF8EB508958EBD00000DB407FEFDCFFF
:100870008EB59EBD00000DB407FEFDCF9EB5089558
:100880002F923F924F925F926F927F928F929F92A0
:10089000AF92BF92CF92DF92EF92FF920F931F938E
:1008A000CF93DF93CDB7DEB764970FB6F894DEBF72
:1008B0000FBECDBFDB01BC91B88BBB2309F49EC03A
:1008C00089839A83198A188619861A861B861C863C
:1008D0001D861E861F861C8A1F82912C812C312C1E
:1008E000212C1A8A1B8AE981FA81419051906190EA
:1008F0007190FA83E983D301C201BB0F880B982F53
:10090000DC018B839C83AD83BE832C893F81492D81
:10091000582D632D722D8A899B8952016301EB80CA
:10092000FE2C0E2D1E2D0E9421252C8B3F83942EF4
:10093000852E362E272E8A8B9B8BA3019201C30115
:10094000B2010E94AD237B018C012B013C01770C8D
:100950004408542C3201288539854A855B856C858D
:100960007D858E859F8557016801E42CF42C042D2C
:10097000142D0E942125288739874A875B876C8739
:100980007D878E879F8799899F5F998BE8899E13C2
:10099000AACFAC88BF80C92CD82CE32CF22C0A89B2
:1009A0001B899501492D582D632D722DC8010E9478
:1009B0002A24A988B12CC12CD12CE12CF12C00E0E7
:1009C00010E00E94F42359016A017B018C01288503
:1009D00039854A855B856C857D858E859F850E94DE
:1009E0002A25A988B12CC12CD12CE12CF12C00E0B6
:1009F00010E00E94F423B901CA0104C060E070E075
:100A000080E090E064960FB6F894DEBF0FBECDBFD5
:100A1000DF91CF911F910F91FF90EF90DF90CF90DA
:100A2000BF90AF909F908F907F906F905F904F900E
:100A30003F902F9008952F923F924F925F926F9226
:100A40007F928F929F92AF92BF92CF92DF92EF925E
:100A5000FF920F931F93CF93DF93CDB7DEB72D9700
:100A60000FB6F894DEBF0FBECDBF8D879C878B017C
:100A700007DFD8019C90292D30E040E050E00E9433
:100A8000DE23CA01B9010E9446260E9461270E9406
:100A900013262B013C01ED85FC8520E030E040E091
:100AA00050E060E070E080E090E0812C8914C1F0BB
:100AB000E190F1900191119157016801DD0CAA08B4
:100AC000BA2C6501A982BA82CB82DC825701680107
:100AD000E980FE2C0E2D1E2D0E9421258394E6CF49
:100AE000A92CB12CC12CD12CE12CF12C00E010E070
:100AF0000E94F4232B87832E342E252EC22ED32E34
:100B0000E42EF52ED301C201880F991FAA1FBB1F27
:100B10008C0D9D1DAE1DBF1D8D839E83AF83B88739
:100B2000AEEFBFEFA30192010E94A9232B013C016C
:100B30004C0C5D1C6E1C7F1C9D859987AC85AA871B
:100B400020E030E040E050E060E070E080E090E0E5
:100B5000E0E0F0E0F91559F1A985BA85ED90FD9036
:100B60000D911D91BA87A987E414F50406051705B0
:100B7000E4F0AD80BE80CF80D884AE14BF04C00640
:100B8000D1069CF057016801DD0CAA08BA2C65015A
:100B9000A982BA82CB82DC8257016801E980FE2CEF
:100BA0000E2D1E2D0E942125EF5FFF5FD3CFEE2378
:100BB00069F0AE2EB12CC12CD12CE12CF12C00E02F
:100BC00010E00E94F423B901CA0104C06B85782D9E
:100BD000832D922D2D960FB6F894DEBF0FBECDBF9C
:100BE000DF91CF911F910F91FF90EF90DF90CF9009
:100BF000BF90AF909F908F907F906F905F904F903D
:100C00003F902F900895CF93C82F6BE171E08FEE46
:100C100091E00E94B019C03130F46EE171E08FEEC6
:100C200091E00E94B01940E150E06C2F8FEE91E00E
:100C3000CF910C94981A1F920F920FB60F92112415
:100C40008F939F9380918D01813079F480E197E2B9
:100C5000909389008093880080EC8093800088E0E6
:100C60008093810010928D0112C0809106019091B5
:100C70000701909389008093880010928B0182E095
:100C800085BD80E88093800081E080938D019F91F5
:100C90008F910F900FBE0F901F9018951F920F927B
:100CA0000FB60F9211242F933F934F935F936F933F
:100CB0007F938F939F93AF93BF93EF93FF93809115
:100CC0008C01813041F08E9A8AE087BD16BC81E0AC
:100CD00080938C0150C08FEB81BB80918B0183305E
:100CE00009F415BC80918B01882341F080918B0120
:100CF000813011F488EC03C08CE301C08EE087BD25
:100D000016BC80918B018230C0F480E090E09BDDC6
:100D100040918701509188016091890170918A0109
:100D2000480F591F611D711D409387015093880121
:100D30006093890170938A0117C080E090E083DDA1
:100D400040918301509184016091850170918601E9
:100D5000480F591F611D711D4093830150938401F9
:100D6000609385017093860180918B018F5F8093E2
:100D70008B0110928C01FF91EF91BF91AF919F91E8
:100D80008F917F916F915F914F913F912F910F9034
:100D90000FBE0F901F901895CF93DF93EC018E9AA2
:100DA00080E18A95F1F78E9885E08A95F1F7000049
:100DB00080E090E048DDBC01882777FD8095982F82
:100DC0000E944626688379838A839B83DF91CF9133
:100DD0000895CF92DF92EF92FF920F931F93CF93DC
:100DE000DF93CDB7DEB7C05FD1090FB6F894DEBF91
:100DF0000FBECDBF61E172E08FEE91E00E948D19D0
:100E00008AE391E00E94C827182F61E072E08FEE1C
:100E100091E00E948D194AE050E0612F8FEE91E041
:100E20000E94981A8BE391E00E94C827182F6BEF5D
:100E300071E08FEE91E00E948D19812FE4DE84E253
:100E400091E00E94D5278C016DEE71E08FEE91E06C
:100E50000E948D19B801769567954AE050E08FEEB3
:100E600091E00E94B21A80E291E00E94D0276B01CB
:100E70007C0163EE71E08FEE91E00E948D1923E01A
:100E800030E0B701A6018FEE91E00E949F1B40E386
:100E900050E060EF70E0CE018F539F4F0E94B82763
:100EA00065ED71E08FEE91E00E948D196EEB71E0BF
:100EB0008FEE91E00E948D198E010F531F4FEE248B
:100EC000E394F12C4AE050E0B7018FEE91E00E94EC
:100ED000601A6CEB71E08FEE91E00E948D19F801C1
:100EE000608171814AE050E08FEE91E00E94AD1A7E
:100EF0006AEB71E08FEE91E00E948D19F80162813A
:100F000073814AE050E08FEE91E00E94AD1A67EBEA
:100F100071E08FEE91E00E948D19FFEFEF1AFF0A4A
:100F20000C5F1F4F8DE0E816F10461F640EC50E0D5
:100F300060E370E0CE0101960E94B82766EA71E096
:100F40008FEE91E00E948D1967E871E08FEE91E0DD
:100F50000E94BB19FE0131967F0101E010E04AE0DA
:100F600050E0B8018FEE91E00E94601A65E871E0F0
:100F70008FEE91E00E948D19F701408151816281CD
:100F8000738122E030E08FEE91E00E949E1B63E8C7
:100F900071E08FEE91E00E948D19F7014481558137
:100FA0006681778122E030E08FEE91E00E949E1B07
:100FB00061E871E08FEE91E00E948D19F7014085A4
:100FC00051856285738522E030E08FEE91E00E94CA
:100FD0009E1B6FE771E08FEE91E00E948D19F70183
:100FE000448555856685778522E030E08FEE91E077
:100FF0000E949E1B6CE771E08FEE91E00E948D19BC
:101000000F5F1F4FF0E4EF0EF11C0430110509F0E3
:10101000A6CFC051DF4F0FB6F894DEBF0FBECDBFD5
:10102000DF91CF911F910F91FF90EF90DF90CF90C4
:101030000895AB01BC0180E291E00C94F12780910E
:1010400006019091070190938900809388008AEFB0
:101050009FEF909385008093840080EC80938000C4
:1010600089E080938100809181008930E1F385B52A
:101070008230E9F308955898599A87EC90E00197E7
:10108000F1F700C000005998589A08955B9885E0E0
:101090008A95F1F70000599A95E09A95F1F70000CA
:1010A000599885E08A95F1F700005B9A5A9A8EE08C
:1010B000599A95E09A95F1F70000599895E09A951C
:1010C000F1F700008150A1F75A9885E08A95F1F771
:1010D000000008955A9A85E08A95F1F70000599A20
:1010E00085E08A95F1F70000599885E08A95F1F737
:1010F00000005A9808955A9885E08A95F1F7000003
:10110000599A85E08A95F1F70000599885E08A950B
:10111000F1F70000DFCF5F9885E08A95F1F70000D6
:101120005D9A95E09A95F1F700005D9885E08A95C3
:10113000F1F700005F9A5E9A8EE05D9A95E09A95CD
:10114000F1F700005D9895E09A95F1F70000815065
:10115000A1F75E9885E08A95F1F7000008955E9A00
:1011600085E08A95F1F700005D9A85E08A95F1F7B0
:1011700000005D9885E08A95F1F7000008955E987B
:1011800085E08A95F1F700005D9A85E08A95F1F790
:1011900000005D9885E08A95F1F700005D9A85E092
:1011A0008A95F1F700005D9885E08A95F1F70000D7
:1011B0000895CF93B0DFE3DFC2E18FE59DE60197AD
:1011C000F1F700C00000CBDFC150B9F7CF9108950F
:1011D0002F9A2FEF80E792E0215080409040E1F776
:1011E00000C000002F982FEF81EE94E02150804046
:1011F0009040E1F700C000002F9A2FEF80E792E0C7
:10120000215080409040E1F700C000002F982FEF60
:1012100081EE94E0215080409040E1F700C0000052
:10122000089584B1806E84B985B18F7185B91092AB
:10123000800088E0809381001092850010928400E5
:101240008AE090E0909389008093880082E0809308
:101250006F0089E080938100809181008930E1F303
:1012600082E084BD15BC16BC80936E008CE387BD04
:1012700040E052EC61E070E08FEE91E00E944C198A
:101280002FEF8DE399E4215080409040E1F700C0BA
:10129000000080B3806E80BB81B3806A81BB8E9872
:1012A0008AB183608AB95898269A8AB1806E8AB9C1
:1012B0008AB18F608AB9589A2E9A8BB1817F8BB987
:1012C0008BB18F718BB96E98769A8CB58F7D8CBDF2
:1012D0008CB5837F88608CBD8CB58C7F8CBD8DB5C3
:1012E00081608DBD73DA65E376E08FEE91E00E9458
:1012F0008D1940E350E060EF70E08FEB91E00E94C9
:10130000B82740E350E060E070E08FE891E00E9491
:10131000B8276CE276E08FEE91E00E948D1959DDDE
:10132000B5DE2E9855DF2FEF83EC99E021508040F9
:101330009040E1F700C000003CDF3BDF2FEF83EC83
:1013400099E0215080409040E1F700C000002F9AC2
:1013500058988AE090E073CE8F929F92AF92BF929E
:10136000CF92DF92EF92FF926B017C0149015A010B
:1013700020E030E048EC52E40E94F62618166CF0AB
:1013800020E030E0A901C701B6010E94A72587FF30
:101390000AC0C12CD12C760106C0C12CD12C28EC5E
:1013A000E22E22E4F22E20E030E048EC52E4C501C7
:1013B000B4010E94F62618166CF020E030E0A90176
:1013C000C501B4010E94A72587FF0AC0812C912C7A
:1013D000540106C0812C912C98ECA92E92E4B92ED0
:1013E000F8948F9885E08A95F1F7000080E124DA7F
:1013F00020E030E04FE753E4C501B4010E94FA2633
:1014000020E030E048EC52E40E94AB250E94182610
:10141000862F12DA80E110DA20E030E04FE753E463
:10142000C701B6010E94FA2620E030E048EC52E401
:101430000E94AB250E941826862FFED985E08A954A
:10144000F1F700008F9A85E08A95F1F70000789413
:10145000FF90EF90DF90CF90BF90AF909F908F90D4
:1014600008951F93CF93DF9300D000D0CDB7DEB7A0
:10147000182F693E83E0780710F068EE73E0CB0127
:10148000A0E0B0E07727662724EC39E040E050E0A8
:101490000E94DE238D98113011F481E303C01230D5
:1014A00051F488E329833A834B835C83C5D929812E
:1014B0003A81C901C8D98D9A0F900F900F900F9063
:1014C000DF91CF911F91089560E070E081E0C9DF66
:1014D00060E070E082E0C5CF2F923F924F925F9222
:1014E0006F927F928F929F92AF92BF92CF92DF9234
:1014F000EF92FF920F931F93CF93DF93CDB7DEB799
:10150000C657D1090FB6F894DEBF0FBECDBF182F56
:10151000E3966FAFE397342E21E430E02C0F3D1FAC
:10152000205D3F4FFE01EF5BFF4F11921192119230
:101530001192E217F307C9F7E3962FADE397211154
:1015400001C010E080E291E00E94D0276B017C0195
:1015500084E291E00E94D527E5969FAF8EAFE59794
:1015600030E4139FB0011124605D7F4F40E450E0F0
:10157000CE0101960E94B8272D813E814F8158856A
:1015800069817A818B819C810E94FA26A70196014C
:101590000E94AB256B017C0179DDADDD2F9809DE62
:1015A0002D813E814F81588569817A818B819C8113
:1015B000D3DE332031F06EE273E08FEE91E00E94D3
:1015C000BB1958E4852E56E0952ECE018F5B9F4FB8
:1015D0005C0100E010E0412C512C60E8662E6FEBBE
:1015E000762E332001F165E273E08FEE91E00E94E8
:1015F0008D194AE050E0B8016F5F7F4F8FEE91E0A8
:101600000E94601A63E273E08FEE91E00E948D19F0
:10161000F401459155916591749122E030E08FEE8F
:1016200091E00E949F1B202E011154DDEFE9FFE0A5
:101630003197F1F700C00000F6E02F1619F198017C
:10164000220F331F220F331F21543E4FF9016081B7
:10165000718181E0E6962FAFE697E7963FAFE79777
:1016600000DFE6962FADE697E7963FADE797F901E5
:101670006281738182E0F5DEE2961FAEE297E3E5D8
:10168000F1E056C02D853E854F85588969857A855C
:101690008B859C8561DE28EE33E08E9AF0E1FA9529
:1016A000F1F78E9880E090E0E6962FAFE697E79608
:1016B0003FAFE797C8D8A0E0B0E080938301909354
:1016C0008401A0938501B0938601E6962FADE6973D
:1016D000E7963FADE797811540E89407A105B1056E
:1016E00064F08F5F9F4FA109B109809383019093AC
:1016F0008401A0938501B09386018091830190912C
:101700008401A0918501B09186018C3D9540A10591
:10171000B1050CF494CF8FEA94E00197F1F700C083
:101720000000215031092115310509F0B6CF87CFCE
:10173000119211921192119291E0E338F907C1F7D9
:101740003CE0232EEFE1FEE43197F1F700C000000A
:10175000E5968EAD9FADE59772DC40918701509183
:1017600088016091890170918A01759567955795F7
:101770004795409387015093880160938901709346
:101780008A018091830190918401A0918501B0919B
:101790008601B595A795979587958093830190933A
:1017A0008401A0938501B09386014115F0E85F079D
:1017B0006105710564F04F5F5F4F610971094093E6
:1017C0008701509388016093890170938A01811584
:1017D00020E89207A105B10564F08F5F9F4FA10932
:1017E000B1098093830190938401A0938501B09304
:1017F0008601332041F169E173E08FEE91E00E94B0
:101800008D194091870150918801609189017091F3
:101810008A012AE030E08FEE91E00E94191A67E118
:1018200073E08FEE91E00E948D19409183015091F9
:10183000840160918501709186012AE030E08FEE8D
:1018400091E00E947D1A8091830190918401A09182
:101850008501B0918601813137E29307A105B10579
:1018600094F54091870150918801609189017091B0
:101870008A01481759076A077B072CF1E2962FADBA
:10188000E29734E0239FF0011124ED5AFE4F481BEC
:10189000590B6A0B7B0B40835183628373832F5FE9
:1018A000E2962FAFE2971092870110928801109272
:1018B000890110928A011092830110928401109282
:1018C0008501109286012A9409F03CCFE2968FADF3
:1018D000E297882371F0BE016F587F4F83E591E056
:1018E000AAD80E944626F501608371838283938380
:1018F00005C0F5014082518262827382E5DD0F5F8F
:101900001F4FF4E0AF0EB11C24E0820E911C0C308E
:10191000110509F066CE332031F06DE073E08FEEF3
:1019200091E00E94BB19E3963FADE397332389F121
:101930005E0141E1A40EB11CCE018F5B9F4F4C01B3
:1019400000E010E0F40141905190619071904F01DE
:10195000F50161917191819191915F01A7019601CA
:101960000E94FA269B01AC01C301B2010E94AB2583
:10197000F801EE0FFF1FEE0FFF1FE157FE4F6083D0
:101980007183828393830F5F1F4F0C301105D1F653
:1019900061C09E012F5B3F4F490158E4A52E56E0E0
:1019A000B52E00E010E068E073E08FEE91E00E9459
:1019B0008D19F501459155916591749122E030E0C2
:1019C0008FEE91E00E949E1B66E073E08FEE91E047
:1019D0000E948D19F40141905190619071904F01D6
:1019E000F801EE0FFF1FEE0FFF1FE157FE4F608162
:1019F000718182819381A70196010E94FA269B0141
:101A0000AC01C301B2010E94AB25AB01BC0122E0D5
:101A100030E08FEE91E00E949E1B64E073E08FEE59
:101A200091E00E948D1922E030E0B301A2018FEE17
:101A300091E00E949F1B0F5F1F4FF4E0AF0EB11C9F
:101A40000C30110509F0AFCF6FEF72E08FEE91E02F
:101A50000E948D19AEDB8FE39CE90197F1F700C07E
:101A600000002F9ACA58DF4F0FB6F894DEBF0FBEA2
:101A7000CDBFDF91CF911F910F91FF90EF90DF903D
:101A8000CF90BF90AF909F908F907F906F905F901E
:101A90004F903F902F9008952F923F924F925F92D8
:101AA0006F927F928F929F92AF92BF92CF92DF926E
:101AB000EF92FF920F931F93CF93DF93CDB7DEB7D3
:101AC000C65BD1090FB6F894DEBF0FBECDBF182F8D
:101AD00068E772E08FEE91E00E948D19CE018F5879
:101AE0009F4FC755DF4F99838883C95AD04080E301
:101AF000C755DF4FE881F981C95AD04011928A95C4
:101B0000E9F780E291E00E94D027C055DF4F68835B
:101B100079838A839B83C05BD04084E291E00E94FA
:101B2000D527CC54DF4F99838883C45BD04000E332
:101B3000202E00E0302EC755DF4F0881C95AD04013
:101B4000C655DF4FF881CA5AD040CA54DF4FF883D8
:101B5000C65BD040CB55DF4F188219821A821B8298
:101B6000C55AD040CF55DF4F188219821A821B8286
:101B7000C15AD04040E450E0B101CE0101960E942C
:101B8000B82789809A80AB80BC804D805E806F8052
:101B90007884A3019201C501B4010E94FA26C055C0
:101BA000DF4F288139814A815B81C05BD0400E9430
:101BB000AB256B017C01A3019201C501B401CCDB13
:101BC00065DA82DC98DACE018F5B9F4F4C01A12C45
:101BD000B12C51DACE018F559F4FDED83501660CFE
:101BE000771C660C771CF301E154FE4F3F016081C6
:101BF000718181E036DCF3016281738182E031DC46
:101C0000CC54DF4F88819981C45BD04018DA809131
:101C10008E01811105C0F5E0FA95F1F70000F7CFCC
:101C2000CE018B559F4FB8D8CF55DF4F28813981D2
:101C30004A815B81C15AD040CB55DF4F68817981A1
:101C40008A819B81C55AD0400E944225F40161934C
:101C50007193819391934F0137DC81E08A0DFBE012
:101C6000AF16B10439F0837009F434DA9FEFA91A82
:101C7000B90AAFCF112319F065E672E002C063E53F
:101C800072E08FEE91E00E948D19CE0141964C01D9
:101C9000FE01EF58FF4FC355DF4FF983E883CD5A5C
:101CA000D040CE018F5B9F4FC555DF4F998388830E
:101CB000CB5AD040A12CB12CC155DF4FA882CF5AAE
:101CC000D040112341F0F4012081318142815381C0
:101CD000C701B6010DC0F501EE0FFF1FEE0FFF1F8C
:101CE000E157FE4F6081718182819381A701960146
:101CF0000E94FA269B01AC01C555DF4FE881F981AE
:101D0000CB5AD04060817181828193810E94AB2542
:101D10002B013C014AE050E0C155DF4F6881CF5AAA
:101D2000D0408FEE91E00E94921A61E572E08FEE52
:101D300091E00E948D1922E030E0B301A2018FEE04
:101D400091E00E949E1B6FE472E08FEE91E00E9492
:101D50008D19C555DF4FE881F981CB5AD0404191AB
:101D6000519161917191C555DF4FF983E883CB5A49
:101D7000D04022E030E08FEE91E00E949F1BA30153
:101D80009201C355DF4FE881F981CD5AD04060817F
:101D90007181828193810E944325C355DF4FE88181
:101DA000F981CD5AD0406193719381939193C3553A
:101DB000DF4FF983E883CD5AD040FFEFAF1ABF0A57
:101DC00084E0880E911C9CE0A916B10409F074CF40
:101DD000E0E42E0E311CF0EF2F16F0E03F0609F084
:101DE000B9CE6BE372E08FEE91E00E948D19112362
:101DF00019F060E372E002C067E272E08FEE91E0FA
:101E00000E948D19A02ECA54DF4FB880C65BD04007
:101E1000812C912C20E030E040E450E4F501608119
:101E20007181828193810E94AB256B017C01F50158
:101E300061937193819391935F014AE050E0682D23
:101E40008FEE91E00E94921A65E272E08FEE91E0CF
:101E50000E948D1922E030E0B701A6018FEE91E0DB
:101E60000E949F1B112359F0F401EE0FFF1FEE0F8C
:101E7000FF1FE157FE4FC082D182E282F382FFEF63
:101E80008F1A9F0A8CE08816910421F6CA54DF4FFE
:101E90000FB6F894DEBF0FBECDBFDF91CF911F917B
:101EA0000F91FF90EF90DF90CF90BF90AF909F90F9
:101EB0008F907F906F905F904F903F902F900895FC
:101EC0008D33910520F4BC01660F771F02C06CE3CF
:101ED00070E084E291E00C94F627CF938BE391E0DD
:101EE0000E94C827C82F62E771E08FEE91E00E9440
:101EF0008D194AE050E06C2F8FEE91E00E94981A05
:101F00008AE391E00E94C827C82F66E671E08FEE51
:101F100091E00E948D194AE050E06C2F8FEE91E025
:101F2000CF910C94981A3F924F925F926F927F924A
:101F30008F929F92AF92BF92CF92DF92EF92FF92D9
:101F40000F931F93CF93DF93CDB7DEB7C857D10957
:101F50000FB6F894DEBF0FBECDBF182F362EE99610
:101F60001CAE1DAE1EAE1FAEE997E5961CAE1DAEB3
:101F70001EAE1FAEE5976FED72E08FEE91E00E940E
:101F80008D1931101BC06FEC72E08FEE91E00E9452
:101F90008D198FEE91E00E948C18892B39F48FE90E
:101FA0009FE00197F1F700C00000F3CF41E062E04D
:101FB0008FEE91E00E94191C162F115090E4199F8A
:101FC000B0011124605D7F4F40E450E0CE010196E6
:101FD0000E94B82780E291E00E94D0272B013C01AB
:101FE00084E291E00E94D5278C01C980DA80EB80E1
:101FF000FC808D809E80AF80B884A5019401C701CC
:10200000B6010E94FA26A30192010E94AB252B0182
:102010003C01A5019401C701B6019ED937D854DA15
:102020006AD8FE01EF5BFF4F6F01E12CF12C23D842
:10203000CE018F589F4F0E94CC064701880C991CF7
:10204000880C991CC40181549E4F4C01FC01608195
:10205000718181E006DAF4016281738182E001DA44
:10206000C8010E941F0880918E01811105C0F5E012
:10207000FA95F1F70000F7CFCE018B589F4F0E94E1
:10208000CC06E5962CAD3DAD4EAD5FADE597E9963E
:102090006CAD7DAD8EAD9FADE9970E944225F601F6
:1020A00061937193819391936F010EDA81E08E0DAC
:1020B000FBE0EF16F10439F0837009F40BD8FFEF61
:1020C000EF1AFF0AB4CF3320B9F17E0181E1E80EA7
:1020D000F11CFE01EF5BFF4F6F0100E010E0F60125
:1020E00081909190A190B1906F01F70161917191F0
:1020F000819191917F01A30192010E94FA269B0197
:10210000AC01C501B4010E94AB25F801EE0FFF1F21
:10211000EE0FFF1FE157FE4F60837183828393832D
:102120000F5F1F4F0C301105D1F66DEA72E08FEE94
:1021300091E00E948D1950C06CE972E08FEE91E041
:102140000E948D19CE018F5B9F4F5C0100E010E073
:102150004AE050E0602F8FEE91E00E94921A6AE907
:1021600072E08FEE91E00E948D19F501C190D1903F
:10217000E190F1905F01F801EE0FFF1FEE0FFF1FDE
:10218000E157FE4F6081718182819381A3019201A9
:102190000E94FA269B01AC01C701B6010E94AB2543
:1021A000AB01BC0122E030E08FEE91E00E949E1B6B
:1021B00068E972E08FEE91E00E948D1922E030E034
:1021C000B701A6018FEE91E00E949F1B0F5F1F4F8A
:1021D0000C30110509F0BCCFC858DF4F0FB6F8948A
:1021E000DEBF0FBECDBFDF91CF911F910F91FF904A
:1021F000EF90DF90CF90BF90AF909F908F907F90A7
:102200006F905F904F903F9008958FEE91E084D74C
:102210001816190624F48FEE91E08CD7F6CF0895A6
:102220004F925F926F927F928F929F92AF92BF92E6
:10223000CF92DF92EF92FF921F93CF93DF93CDB7B0
:10224000DEB7C05FD1090FB6F894DEBF0FBECDBFB9
:1022500061EA74E08FEE91E00E948D190E944608B9
:1022600010E08FEE91E055D78FEE91E055D718161C
:102270001906BCF78FEE91E05DD79927FC01E15676
:10228000F109EA31F10508F0A3C2EA5AFF4F0C94B4
:102290001B2541E062E08FEE91E00E94861C4B011D
:1022A0005C0141E062E08FEE91E00E94861C6B01D0
:1022B0007C019B01AC01C501B4014ED820E030E0A7
:1022C00048EC52E4C501B4010E94F62618166CF0E1
:1022D00020E030E0A901C501B4010E94A72587FFD5
:1022E0000AC0812C912C540106C0812C912CB8EC91
:1022F000AB2EB2E4BB2E20E030E048EC52E4C70144
:10230000B6010E94F62618166CF020E030E0A90114
:10231000C701B6010E94A72587FF0AC0C12CD12C96
:10232000760106C0C12CD12CA8ECEA2EA2E4FA2E2C
:10233000E1E0F0E0EC0FFD1F80E4189FE00DF11DDF
:10234000112480829182A282B382C482D582E682E5
:10235000F78287CF62E974E08FEE91E0DED741E04B
:1023600062E08FEE91E00E94191CF62E1FEF160F0F
:1023700069E774E08FEE91E0D0D74AE050E06F2D2E
:102380008FEE91E00E94981A6CCF0E94E90663E4F8
:1023900074E08FEE91E0C1D7C051DF4F0FB6F894D3
:1023A000DEBF0FBECDBFDF91CF911F91FF90EF90A9
:1023B000DF90CF90BF90AF909F908F907F906F9065
:1023C0005F904F90089540EC50E060E370E0CE01E4
:1023D00001960E94DA270E94E90643CF60E374E089
:1023E0008FEE91E09AD7612F70E06F5F7F4F4AE0E8
:1023F00050E08FEE91E00E94671A33CFAA24A39495
:10240000B12CAC0EBD1E90E4199FA00CB11C112480
:10241000CC24C394D12CE12CF12C41E062E08FEE6E
:1024200091E00E94861C2B013C01F501EE0DFF1D81
:10243000608B718B828B938B6AE274E08FEE91E0FC
:102440006CD74AE050E0B6018FEE91E00E94601A2E
:1024500062E274E08FEE91E060D723E030E0B301F8
:10246000A2018FEE91E00E949F1BE4E0EE0EF11CB2
:10247000FFEFCF1ADF0A80E3E816F10471F6F1CE20
:1024800041E062E08FEE91E00E94861C6B017C01CE
:10249000AA24A394B12CAC0EBD1E90E4199FA00CED
:1024A000B11C1124F501C086D186E286F3866AE16B
:1024B00074E08FEE91E031D722E030E0B701A60161
:1024C0008FEE91E00E949F1B41E062E08FEE91E071
:1024D0000E94861C6B017C01F501648775878687E5
:1024E000978762E174E08FEE91E017D722E030E049
:1024F000B701A6018FEE91E00E949F1BB2CE40E390
:1025000050E060E070E0CE018F539F4F0E94B827EB
:1025100061E0812F08DD60EF73E08FEE91E0FDD682
:10252000CE018F539F4F6C01E12CF12C4AE050E01B
:102530006E2D8FEE91E0F6D76DEE73E08FEE91E0A9
:10254000ECD65601F60141915191619171916F0163
:1025500022E030E08FEE91E00E949E1B6AEE73E075
:102560008FEE91E0DAD64701880C991C880C991CF3
:10257000C40181579E4F4C01FC0140815181628111
:10258000738122E030E08FEE91E00E949E1B67EEA7
:1025900073E08FEE91E0C1D6F40160817181828198
:1025A00093814080518062807380F5012081318168
:1025B000428153810E944225A30192010E94AB25D2
:1025C00020E030E048EC52E40E94FA26AB01BC0166
:1025D00022E030E08FEE91E00E949E1B65EE73E0FA
:1025E0008FEE91E09AD6FFEFEF1AFF0A8CE0E81623
:1025F000F10409F09BCF6EEA73E08FEE91E08DD687
:102600008FEE91E089D5892B09F093C0EFE9FFE0C7
:102610003197F1F700C00000F3CF40E350E060E0F5
:1026200070E0CE018F539F4F0E94B82781E034DACB
:102630006BE873E08FEE91E070D6CE018F539F4F21
:102640006C01E12CF12C4AE050E06E2D8FEE91E010
:1026500069D768E873E08FEE91E05FD65601F60126
:1026600041915191619171916F0122E030E08FEEC3
:1026700091E00E949E1B65E873E08FEE91E04DD6DD
:102680004701880C991C880C991CC40181579E4FE6
:102690004C01FC01408151816281738122E030E074
:1026A0008FEE91E00E949E1B62E873E08FEE91E056
:1026B00034D6F401608171818281938140805180A0
:1026C00062807380F50120813181428153810E94B3
:1026D0004225A30192010E94AB2520E030E048ECA6
:1026E00052E40E94FA26AB01BC0122E030E08FEEFA
:1026F00091E00E949E1B6FE773E08FEE91E00DD694
:10270000FFEFEF1AFF0A8CE0E816F10409F09BCF07
:1027100067E473E08FEE91E000D68FEE91E0FCD499
:10272000892B39F4EFE9FFE03197F1F700C00000A1
:10273000F4CF8FEE91E0FED440E350E060E070E033
:102740008937910519F48FE891E03FC08FE891E057
:102750000E94B82786CDA12CB12C41E062E08FEE1B
:1027600091E00E94861C6B017C01F501EE0FFF1FBA
:10277000EE0FFF1FE157FE4F6083718382839383C7
:1027800062E473E08FEE91E0C8D5FFEFAF1ABF0AA5
:102790004AE050E0B5018FEE91E092D66AE373E033
:1027A0008FEE91E0BAD523E030E0B701A6018FEEBD
:1027B00091E0C5D78CE0A816B10479F640E350E06B
:1027C00060E070E0CE018F539F4F0E94DA2749CD21
:1027D0001CDD47CD2F923F924F925F926F927F9276
:1027E0008F929F92AF92BF92CF92DF92EF92FF9221
:1027F0000F931F93CF93DF93CDB7DEB7C058D1406F
:102800000FB6F894DEBF0FBECDBFFFDC60EC75E005
:102810008FEE91E082D50E944608312C8E010F5335
:102820001F4F412C512CA8EC6A2EA2E47A2E8FEE79
:1028300091E06FD48FEE91E06FD418161906BCF7B3
:102840008FEE91E077D49927FC01E156F109EA3146
:10285000F10508F05CC3E059FF4F0C941B2541E0E3
:1028600062E08FEE91E0E5D76B017C01CB0128DBC4
:102870006BEA75E08FEE91E050D54AE050E0B6018A
:102880008FEE91E06FD6D3CF41E062E08FEE91E022
:102890000E94861C6B017C010E94190861E975E0A9
:1028A0008FEE91E03AD522E030E0B701A6018FEE3D
:1028B00091E045D7BCCF41E062E08FEE91E0B9D71F
:1028C00024E0329EF0011124E154FE4F71836083B5
:1028D00081E00EC041E062E08FEE91E0AAD734E0E3
:1028E000339EF0011124E154FE4F7383628382E032
:1028F0000E94310A9CCF0E94640A0E9446086CE53F
:1029000075E006C00E94640A0E947B0869E475E0D5
:102910008FEE91E002D5312C8ACF0E94640A4BE001
:10292000341217C060E271E08FEE91E019D54AE0F1
:1029300050E06CE070E08FEE91E0C2D565E271E0AE
:102940008FEE91E00DD56CE275E08FEE91E0E5D46D
:102950006ECF33940E946A0860E271E08FEE91E0DE
:10296000FFD4632D70E06F5F7F4F4AE050E08FEE41
:1029700091E0A6D56BE271E08FEE91E0F1D457CFF4
:10298000FAE0FF2E80910601909107010E941F0836
:1029900040918701509188016091890170918A016D
:1029A0007595679557954795409387015093880192
:1029B0006093890170938A018091830190918401D1
:1029C000A0918501B0918601B595A79597958795BA
:1029D0008093830190938401A0938501B093860135
:1029E0004115E0E85E076105710564F04F5F5F4FD8
:1029F00061097109409387015093880160938901AF
:102A000070938A018115F0E89F07A105B10564F074
:102A10008F5F9F4FA109B109809383019093840137
:102A2000A0938501B093860167E275E08FEE91E097
:102A300074D460918701709188018091890190918F
:102A40008A018090830190908401A0908501B090CC
:102A50008601681979098A099B090E94462620E0A7
:102A600030E44EE455E40E94FA2620E03EEF4FEFBA
:102A700056E40E94AB25AB01BC0122E030E08FEEB2
:102A800091E05DD661E275E08FEE91E046D4409131
:102A90008701509188016091890170918A012AE033
:102AA00030E08FEE91E0C5D469E175E08FEE91E002
:102AB00034D44091830150918401609185017091DB
:102AC00086012AE030E08FEE91E017D51092870161
:102AD000109288011092890110928A01109283014C
:102AE0001092840110928501109286012FEF32E539
:102AF00047E0215030404040E1F700C00000FA9428
:102B000009F040CF94CE80910601909107010E9478
:102B10001F0840918701509188016091890170914F
:102B20008A0175956795579547954093870150930E
:102B300088016093890170938A018091830190914B
:102B40008401A0918501B0918601B595A7959795CF
:102B500087958093830190938401A0938501B0931E
:102B600086014115E0E85E076105710564F04F5F7D
:102B70005F4F610971094093870150938801609309
:102B8000890170938A018115F0E89F07A105B105BD
:102B900064F08F5F9F4FA109B109809383019093E7
:102BA0008401A0938501B093860164E175E08FEE06
:102BB00091E0B3D360918701709188018091890180
:102BC00090918A01C0908301D0908401E0908501AA
:102BD000F09086016C197D098E099F090E94462696
:102BE00020E030E44EE455E40E94FA2620E03EEF77
:102BF0004FEF56E40E94AB25AB01BC0122E030E070
:102C00008FEE91E09CD56EE075E08FEE91E085D37C
:102C100040918701509188016091890170918A01EA
:102C20002AE030E08FEE91E004D466E075E08FEEAC
:102C300091E073D3409183015091840160918501AB
:102C4000709186012AE030E08FEE91E056D4109228
:102C50008701109288011092890110928A011092C6
:102C60008301109284011092850110928601DFCDBC
:102C70000E94640ADCCD66EF74E08FEE91E04DD3E4
:102C8000632D70E06F5F7F4F4AE050E08FEE91E080
:102C90001ED4CDCD41E062E08FEE91E0CAD5262E64
:102CA00041E062E08FEE91E031D64B015C0141E002
:102CB00062E08FEE91E02AD66B017C019B01AC01B2
:102CC000C501B4010E94AC094AE050E0622D8FEECC
:102CD00091E02ED422E030E0B501A4018FEE91E026
:102CE0002ED522E030E0B701A6018FEE91E027D586
:102CF00020E030E048EC52E4C501B4010E94F62621
:102D000018166CF020E030E0A901C501B4010E9462
:102D1000A72587FF0AC0812C912C540106C0812C65
:102D2000912CE8ECAE2EE2E4BE2E20E030E048EC40
:102D300052E4C701B6010E94F62618166CF020E096
:102D400030E0A901C701B6010E94A72587FF0AC08C
:102D5000C12CD12C760106C0C12CD12C78ECE72EE9
:102D600072E4F72E21E0D80122120BC08D929D92C1
:102D7000AD92BC921397F801C482D582E682F782A5
:102D800056CD18968D929D92AD92BC921B97F801EC
:102D9000C486D586E686F7864ACD42DA48CD40E33A
:102DA00050E060EF70E08FEB91E00E94DA2740EC9A
:102DB00050E060E370E0C8010E94DA2738CD0E943D
:102DC000E9066DEC74E08FEE91E0A7D2C058DE4FBB
:102DD0000FB6F894DEBF0FBECDBFDF91CF911F912C
:102DE0000F91FF90EF90DF90CF90BF90AF909F90AA
:102DF0008F907F906F905F904F903F902F900895AD
:102E000088E290E05DD86AE979E989E790E40E9478
:102E1000190880E090E0AC01405B5F4F9C01220FFD
:102E2000331F220F331FF901E154FE4F51834083BA
:102E300053834283F901E157FE4F2DEC3CEC4CE803
:102E40005FE3208331834283538301968C30910565
:102E500011F7FE0131964082518262827382448270
:102E6000558266827782448655866686778680E0BC
:102E700090E0A0EAB1E480879187A287B38780E0E1
:102E800090E0DF01A80FB91F2AE939E949E95FE3BA
:102E900050962D933D934D935C93539704968033B6
:102EA000910579F7E05CFF4FE017F107A1F640E3E9
:102EB00050E060EF70E08FEB91E00E94DA2740E392
:102EC00050E060E070E08FE891E00E94DA2740EC8B
:102ED00050E060E370E0CE0101960E94DA270E9484
:102EE000E906A5CC41E062E08FEE91E0A2D4F62E97
:102EF00041E062E08FEE91E09CD48AE391E00E9491
:102F0000E3276F2D8BE391E00E94E32790CC7DD9DE
:102F10008ECCCF938FEE91E0FCD0669B07C08FEEF6
:102F200091E0FAD018161906C4F0C1C02FEF82E55F
:102F300097E0215080409040E1F700C00000669982
:102F4000EECF67E276E08FEE91E0E7D16699E7CFCA
:102F500025E02A95F1F70000F9CF8FEE91E0EAD055
:102F6000FC01FF27E156F109EA31F10508F098C0AC
:102F7000E657FF4F0C941B256FE176E08FEE91E052
:102F8000CCD10E94460891C068E176E08FEE91E0D6
:102F9000C4D10E946A0889C060E176E08FEE91E0BA
:102FA000BCD10E947B0881C061E076E08FEE91E0A9
:102FB000B4D1F8948F9885E08A95F1F7000080E10C
:102FC0000E941C048FEF0E941C0480E10E941C04DC
:102FD00083E30E941C0495E09A95F1F700008F9A14
:102FE00025E02A95F1F700007894C5E062E370E0EF
:102FF00081E00E94310A60E070E082E00E94310AC4
:1030000085E88A95F1F7000088E790E00E941F08A4
:103010009FEF23EC89E0915020408040E1F700C011
:103020000000C15019F70E94640A3FC065EF75E0C7
:103030008FEE91E072D10E94E8089FEF23EC89E0C7
:10304000915020408040E1F700C000000E94D90864
:103050000E94D9089FEF23EC89E0915020408040E6
:10306000E1F700C0000021C0B5DB1FC06FED75E0C7
:103070008FEE91E052D119C060E080E00E94930F82
:1030800014C040E001C041E060E080E00E946C0AB2
:103090000CC00E946D0F09C080E00E944C0D05C05D
:1030A000682F8FEE91E05DD1B0D8CF91AEC8CF91AF
:1030B00008950E94012280E492E00E9435210E943E
:1030C000110927DFFECFCF93DF931F92CDB7DEB775
:1030D0006983DC01ED91FC910280F381E02D41E0F8
:1030E00050E0BE016F5F7F4F09950F90DF91CF9148
:1030F0000895CF93DF93EC018C859D8597FF04C0E5
:1031000082E0A4D59D878C878C859D85DF91CF91AA
:10311000089583E00C94AB20FC018485958597FD90
:1031200005C082E03DD590E00196089582E038D553
:1031300090E00895FC018485958597FD05C02FEFEB
:103140003FEF35872487089582E080C5CF93DF93D2
:10315000EC0180911301882329F083E0A6D518168D
:10316000190634F081E090E09B838A8380E090E050
:10317000DF91CF910895FC0120812E5F208342E4EE
:1031800050E068E776E080E831C6FC01218180816B
:10319000813A51F4213209F049C047E050E06CE037
:1031A00071E080E023D65DC0813209F03FC0233258
:1031B00089F4838190E0982F88273281832BA0E0C7
:1031C000B0E08093080190930901A0930A01B093A5
:1031D0000B010EC0203231F467E070E08CE091E02A
:1031E00035D609C0223221F482818093130103C0B5
:1031F0002D7F2032B1F580913F02811103C0E0E0C4
:10320000F8E002C0EEEFFAE080910C0190910D0120
:10321000A0910E01B0910F01803B9440A105B10532
:1032200011F58091130180FF03C01DC080E0089557
:10323000EE3F2AE0F20731F0808191819093FF0AFE
:103240008093FE0A87E797E7918380832BE088E1EC
:1032500090E00FB6F894A895809360000FBE20937D
:10326000600081E0089588E10FB6F89480936000D3
:10327000109260000FBEA895EE3F8AE0F80739F083
:103280008091FE0A9091FF0A91838083EACF109289
:10329000FF0A1092FE0AE5CF2FEF3FEFFC013587C2
:1032A000248708951092F2011092F10188EE93E0C4
:1032B000A0E0B0E08093F3019093F401A093F501B6
:1032C000B093F60189E391E09093F0018093EF01D0
:1032D0008FEF9FEF9093FC018093FB010895DC0139
:1032E000ED91FC910190F081E02D642F099461151E
:1032F000710581F0DB010D900020E9F7AD0141502F
:103300005109461B570BDC01ED91FC910280F381C2
:10331000E02D099480E090E00895EF92FF920F93E2
:103320001F93CF93DF938C017B01C0E0D0E0F701C6
:10333000EC0FFD1F6491662359F0F801A081B18163
:10334000ED91FC91C8010995892B11F02196EFCFE1
:10335000CE01DF91CF911F910F91FF90EF900895D3
:10336000C6CFDC01ED91FC910190F081E02D099434
:1033700062E371E0BCCF0F931F93CF93DF93EC0117
:10338000CCDF8C01CE01F4DF800F911FDF91CF9154
:103390001F910F9108958F929F92AF92BF92DF92EB
:1033A000EF92FF920F931F93CF93DF93CDB7DEB7CA
:1033B000A1970FB6F894DEBF0FBECDBF7C01F42FEE
:1033C000D52ECB0119A2223008F42AE08E010F5D20
:1033D0001F4F822E912CA12CB12C6F2F7D2DA5017A
:1033E00094010E94BC23F22FD32ECA01015011096F
:1033F0006A3014F4E0E301C0E7E3E60FD801EC9390
:10340000232B242B252B49F7B801C70170DFA19688
:103410000FB6F894DEBF0FBECDBFDF91CF911F91E5
:103420000F91FF90EF90DF90BF90AF909F908F90A3
:103430000895CF92DF92EF92FF920F931F93CF9355
:10344000DF93EC016A017B012115310579F4E881F4
:10345000F9810190F081E02D642FDF91CF911F91D0
:103460000F91FF90EF90DF90CF9009942A303105B3
:10347000D9F477FF18C06DE274DF8C01442755271B
:10348000BA014C195D096E097F092AE0CE0183DF7C
:10349000800F911FDF91CF911F910F91FF90EF90BF
:1034A000DF90CF9008952AE0B701A601CE01DF9109
:1034B000CF911F910F91FF90EF90DF90CF906BCF46
:1034C0009A01AB01662757FD6095762FB2CF0F9317
:1034D0001F93CF93DF93EC019A01AB01662757FD51
:1034E0006095762FA6DF8C01CE0142DF800F911F01
:1034F000DF91CF911F910F9108950F931F93CF9359
:10350000DF93EC0196DF8C01CE0132DF800F911F3B
:10351000DF91CF911F910F9108952115310509F485
:10352000DECE39CF9A01462F50E060E070E0F5CF53
:103530000F931F93CF93DF93EC019A01462F50E036
:1035400060E070E0EADF8C01CE0112DF800F911F96
:10355000DF91CF911F910F9108959A01AB0160E027
:1035600070E0DBCF0F931F93CF93DF93EC019A01B1
:10357000AB0160E070E0D1DF8C01CE01F9DE800F9D
:10358000911FDF91CF911F910F9108954F925F92FC
:103590006F927F92BF92CF92DF92EF92FF920F9342
:1035A0001F93CF93DF93EC016A017B01B22E9A0146
:1035B000AB01C701B6010E949F27882319F065E47B
:1035C00071E027C026013701E89477F82FEF3FEF2D
:1035D0004FE75FE7C301B2010E949F2781110DC031
:1035E0002FEF3FEF4FE75FE7C301B2010E94A7252E
:1035F00018161CF469E471E00CC02FEF3FEF4FE7A1
:103600005FE4C701B6010E94F62618168CF46DE43B
:1036100071E0CE01DF91CF911F910F91FF90EF905C
:10362000DF90CF90BF907F906F905F904F905FCE74
:103630002FEF3FEF4FE75FECC701B6010E94A725D0
:1036400087FDE5CF20E030E0A901C701B6010E9467
:10365000A72587FF09C06DE2CE0183DE8C01F7FA52
:10366000F094F7F8F09402C000E010E0712C60E0F4
:1036700070E080E09FE37B1441F020E030E040E226
:1036800051E40E94AB257394F6CF9B01AC01C701B6
:10369000B6010E9443256B017C010E9418262B0174
:1036A0003C010E9444269B01AC01C701B6010E9467
:1036B00042256B017C012AE0B301A201CE016BDE41
:1036C000080F191FBB2029F06EE2CE014ADE080F59
:1036D000191FBB2021F120E030E040E251E4C70196
:1036E000B6010E94FA266B017C010E9418262B016C
:1036F000612C712C2AE0B301A201CE014CDE080F2F
:10370000191FC301B2010E9444269B01AC01C701ED
:10371000B6010E9442256B017C01BA94DACFC80140
:10372000DF91CF911F910F91FF90EF90DF90CF909D
:10373000BF907F906F905F904F90089527CF0F9329
:103740001F93CF93DF93EC0121DF8C01CE0110DEBC
:10375000800F911FDF91CF911F910F9108950F93CB
:103760001F93CF93DF93EC01E6D5688779878A872B
:103770009B87E881F9810084F185E02DCE010995D0
:1037800097FF14C0D8D5088519852A853B85601B0D
:10379000710B820B930B0C811D812E813F81601771
:1037A00071078207930728F38FEF9FEFDF91CF9187
:1037B0001F910F9108950F931F93CF93DF93EC0107
:1037C000162F042FCE01CBDF9C0197FD26C08D3232
:1037D000910509F1C0970A9700F1002319F02E32E4
:1037E0003105E9F01130F1F0123069F42D30310576
:1037F00051F034F4295031092230310520F012C043
:103800002032310579F4E881F9810680F781E02DD5
:10381000CE010995D7CF8DE203C0C90105C08EE264
:1038200090E002C08FEF9FEFDF91CF911F910F913A
:103830000895CF92DF92FF920F931F93CF93DF9360
:1038400000D000D0CDB7DEB76C01042F40E0B3DF6D
:10385000FC0197FD49C020E030E0A901F12C1127BF
:1038600007FD1095E017F107E1F0ED32F105B9F031
:10387000CF01C0970A97A8F4AAE0B0E05ED79B01F9
:10388000AC01CF01AA2797FDA095BA2F280F391FA9
:103890004A1F5B1F205331094109510902C0FF240F
:1038A000F394D601ED91FC910680F781E02DC601DD
:1038B00029833A834B835C830995C60150DFFC0161
:1038C000C09729813A814B815C810A9758F2E017B1
:1038D000F10741F2FF2061F066277727CB01621BD9
:1038E000730B840B950B06C060E070E0CB0102C047
:1038F000CA01B9010F900F900F900F90DF91CF91F7
:103900001F910F91FF90DF90CF9008956F927F925B
:103910008F929F92AF92BF92CF92DF92EF92FF92DF
:103920000F931F93CF93DF93EC01042F41E043DF0C
:10393000FC0197FD72C0812C912C80E8A82E8FE3AA
:10394000B82EC12CD12C7601712C612C112707FDCA
:103950001095E017F10789F1ED32F10549F1EE32EA
:10396000F10549F1CF01C0970A9738F5AAE0B0E018
:10397000A7019601E2D66B017C01CF01AA2797FD32
:10398000A095BA2FC80ED91EEA1EFB1E80E3C81AE6
:10399000D108E108F108772081F02DEC3CEC4CECEB
:1039A0005DE3C501B4010E94FA264B015C0105C02C
:1039B0006624639402C077247394E881F9810680B9
:1039C000F781E02DCE010995CE01C9DEFC01C0973B
:1039D0000A9708F4BECFEE32F10519F4772009F406
:1039E000B8CFE017F10709F4B4CF662041F0F094A6
:1039F000E094D094C094C11CD11CE11CF11CC701FF
:103A0000B601772039F00E944626A50194010E9454
:103A1000FA2606C00E94462603C060E070E0CB0193
:103A2000DF91CF911F910F91FF90EF90DF90CF909A
:103A3000BF90AF909F908F907F906F90089561504E
:103A400030F02091F100FC0120830196F8CF2898F6
:103A500084E68093490208954091440250914502C2
:103A6000209142023091430242175307B4F49091DF
:103A7000E8009570E1F39091E80092FD19C0809301
:103A8000F100809144029091450201968F7399272D
:103A9000892B19F48EEF8093E80080914402909175
:103AA00045020196909345028093440281E0089577
:103AB00080E00895CF92DF92EF92FF920F931F93D1
:103AC000CF93DF931F92CDB7DEB7082F162FF42EBA
:103AD000862F880F8E5F9983BFDF83E0BDDFE02EE6
:103AE000C02E9981D92E8C2D8E19811788F4F6015C
:103AF000F7FE02C0849101C08081AEDF082F80E014
:103B0000ABDF8023FFEFCF1ADF0A8111ECCF01C0BA
:103B100081E00F90DF91CF911F910F91FF90EF9077
:103B2000DF90CF9008958091D70081608093D70077
:103B300080EA8093D80089B5806189BD89B58260AB
:103B400089BD09B400FEFDCF61E070E080E090E047
:103B500021D48091D8008F7C80618093D80080919F
:103B6000E000807F8093E0000895CF93DF931F9261
:103B7000CDB7DEB71982CE010196FDDAC9D5BE01F7
:103B80006F5F7F4F3ED589810F90DF91CF91089570
:103B90002FB7FC012083F89467706093E9000895C3
:103BA000CF93DF931F92CDB7DEB7682FCE0101967A
:103BB000EFDF8091F20099819FBF0F90DF91CF914D
:103BC0000895FF920F931F93CF93DF9300D0CDB74B
:103BD000DEB7F62E8A0190914802992311F057FF23
:103BE00003C08FEF9FEF2AC0682FCE0101967A8322
:103BF000CFDF8091F20090E0A8017A8180179107D1
:103C00000CF4AC01EF2DF72FF40E84E6FE1639F01C
:103C10002898809349029091F1009193F7CF411534
:103C2000510521F08091F200882321F089818FBF16
:103C3000CA0104C08BE68093E800F8CF0F900F9084
:103C4000DF91CF911F910F91FF900895CF93DF9354
:103C50001F92CDB7DEB741E050E0BE016F5F7F4FEE
:103C6000B0DF019719F4898190E002C08FEF9FEFD8
:103C70000F90DF91CF910895CF93DF931F92CDB72F
:103C8000DEB7682FCE01019683DF9091E800892F7F
:103C9000807295FF04C09091F2008FE3891B998197
:103CA0009FBF0F90DF91CF9108956F927F928F9277
:103CB0009F92AF92BF92CF92DF92EF92FF920F93BB
:103CC0001F93CF93DF931F92CDB7DEB7782E7B0182
:103CD000C42EB52E80914802811103C08FEF9FEF53
:103CE0006AC08091460280FF05C08091E00082603A
:103CF0008093E0000C2D1B2D8AEFD82E872D80722B
:103D0000982E9AE3A92E872D8074882E011511050F
:103D100009F447C0872DB0DF682E811108C0DA94FE
:103D2000E9F261E070E080E090E034D3EFCF282F3B
:103D300030E0021713070CF4602E672DCE010196B8
:103D400027DF8091E80085FF29C0262D30E0021B87
:103D5000130B992039F06A948FEF6816B1F0109226
:103D6000F100F9CFF701862D77FE07C0815058F09A
:103D700094919093F1003196F9CF815020F0919178
:103D80009093F100FACFE20EF31E8091E80085FFD8
:103D90000FC00115110511F481100AC089818FBF70
:103DA000B5CF5D9884E680934A028C2D9B2D03C08D
:103DB000A092E800F3CF0F90DF91CF911F910F9168
:103DC000FF90EF90DF90CF90BF90AF909F908F903B
:103DD0007F906F9008951092E90010924502109222
:103DE000440290934302809342020895CF92DF925F
:103DF000FF920F931F93CF93DF9300D0CDB7DEB721
:103E0000F82E8A016B0101151105A9F0F601F7FEE4
:103E100002C0849101C0808149835A831DDE015014
:103E20001109FFEFCF1ADF0A49815A818111EBCFC7
:103E30008FEF9FEF01C0CA010F900F90DF91CF91DC
:103E40001F910F91FF90DF90CF900895BF92CF9276
:103E5000DF92EF92FF920F931F93CF93DF936C014A
:103E60008B01EB013BEFB32E2097B9F07E01C134FB
:103E7000D1051CF020E4E22EF12C8091E80082FFB5
:103E8000FCCFC8018C1B9D0B6E2D8C0D9D1DD7DDAD
:103E9000B092E800CE19DF09E7CFC801DF91CF91DA
:103EA0001F910F91FF90EF90DF90CF90BF900895FA
:103EB0001F920F920FB60F921124DF92EF92FF9292
:103EC0000F931F932F933F934F935F936F937F9322
:103ED0008F939F93AF93BF93EF93FF93CF93DF9312
:103EE000CDB7DEB76C97DEBFCDBF1092E9008091F1
:103EF000E80083FF12C168E0CE014596A0DD82EFA5
:103F00008093E8003D8937FF05C08091E80080FF7D
:103F1000FCCF03C08EEF8093E800832F807609F0FA
:103F2000E4C02E894F89D88C21110CC0303829F477
:103F3000809147028093F10002C01092F10010922C
:103F4000F100E4C0842F90E09D29213049F4311123
:103F5000DDC0019709F0DAC0809147028D7F0AC069
:103F6000233059F43111D2C0019709F0CFC08091AC
:103F70004702826080934702C9C0253041F4809196
:103F8000E80080FFFCCF40684093E300BFC02630CC
:103F900009F081C0EB8CFC8C22E0D21227C080E0BB
:103FA00090E019DFE2DD99E08E010F5F1F4FF8010D
:103FB000292F11922A95E9F79983DA8291E09E835D
:103FC00090EA98879AEF99872091440230914502B0
:103FD000275F3F4F3C832B838D83C701FCDE49E085
:103FE00050E0B80180E002DFC0DD90C0C701F3DE21
:103FF0008FD3BE016B5E7F4F2DD3009719F00CF06D
:1040000085C088C081E0D8120EC08B8D9C8D08972A
:1040100019F481E0809341028091410281112CC00A
:104020006CEC76E02EC0E3E0DE1274C08F8988234A
:1040300031F1823029F440E86CE08EEE96E01AC04F
:10404000813029F440E86FE08EED96E013C08330B4
:1040500009F060C05DD38E010F5F1F4FB80119D307
:10406000F80101900020E9F73197E01BF10B40E0E7
:104070006E2FC8011FDD48C06AEB76E002C06BEF0F
:1040800076E06115710509F445C0FB01449150E0EB
:1040900080E8ACDE3BC0273009F43CC0283021F476
:1040A00081E08093F10032C0293081F5337091F5C1
:1040B000E5E1F1E081E021E036E39081992361F0D0
:1040C0008093E9002093EB0091919093EC00309362
:1040D000ED008F5F873089F78EE78093EA001092BA
:1040E000EA008F898093480211C08B8D9C8D73DE0E
:1040F000898D811104C0CE01459647D805C008D3EB
:10410000BE016B5E7F4FE4D2882321F08EEF809357
:10411000E80003C081E28093EB006C960FB6F89440
:10412000DEBF0FBECDBFDF91CF91FF91EF91BF9169
:10413000AF919F918F917F916F915F914F913F913F
:104140002F911F910F91FF90EF90DF900F900FBE76
:104150000F901F9018958093E9008091F2008823BA
:1041600019F08AE38093E80008951F920F920FB62A
:104170000F9211242F933F934F935F936F937F93ED
:104180008F939F93AF93BF93CF93EF93FF93C09180
:10419000E1008091E100837F8093E100C3FF0FC0C5
:1041A0001092E90081E08093EB001092EC0082E332
:1041B0008093ED001092480288E08093F000C2FFE7
:1041C00018C083E0C8DF80914A02882339F08091CB
:1041D0004A02815080934A02882389F180914902E2
:1041E000882339F0809149028150809349028823C5
:1041F00041F1C4FF10C08091E2008E7E8160809307
:10420000E2008091E1008F7E8093E1008091460280
:104210008E7E806111C0C0FF16C08091E2008E7E4C
:1042200080618093E2008091E1008E7E8093E100C6
:10423000809146028E7E81608093460204C05D9A22
:10424000CDCF289AD6CFFF91EF91CF91BF91AF916B
:104250009F918F917F916F915F914F913F912F919E
:104260000F900FBE0F901F90189510924802109259
:1042700047021092460257DC8091E1008E7E8093C7
:10428000E1008DE08093E200559A209AEEEFFFE77F
:10429000859194918B3F9C4D19F481E080933F026E
:1042A00008951F920F920FB60F9211242F933F93F0
:1042B0008F939F93AF93BF9380914C0290914D0247
:1042C000A0914E02B0914F0230914B0223E0230F98
:1042D0002D3720F40196A11DB11D05C026E8230F3E
:1042E0000296A11DB11D20934B0280934C02909326
:1042F0004D02A0934E02B0934F02809150029091D4
:104300005102A0915202B09153020196A11DB11D1C
:104310008093500290935102A0935202B0935302A3
:10432000BF91AF919F918F913F912F910F900FBEB1
:104330000F901F9018952FB7F89460914C027091D0
:104340004D0280914E0290914F022FBF08953FB7CA
:10435000F8948091500290915102A0915202B09134
:10436000530226B5A89B05C02F3F19F00196A11D49
:10437000B11D3FBF6627782F892F9A2F620F711DBD
:10438000811D911D42E0660F771F881F991F4A9576
:10439000D1F708958F929F92AF92BF92CF92DF9202
:1043A000EF92FF926B017C01D2DF4B015C01C114E3
:1043B000D104E104F104E1F0BFD1C9DF6819790942
:1043C0008A099B09683E73408105910580F321E0CD
:1043D000C21AD108E108F10888EE880E83E0981E21
:1043E000A11CB11CC114D104E104F10431F7DFCFE9
:1043F000FF90EF90DF90CF90BF90AF909F908F9005
:104400000895789484B5826084BD84B5816084BD4C
:1044100085B5826085BD85B5816085BDEEE6F0E03D
:10442000808181608083E1E8F0E010828081826099
:104430008083808181608083E0E8F0E0808181601A
:104440008083E1E9F0E08081826080838081816007
:104450008083E0E9F0E0808181608083E1ECF0E03E
:10446000808184608083808182608083808181609C
:104470008083E3ECF0E0808181608083E0ECF0E019
:10448000808182608083E2ECF0E0808181608083C3
:10449000EAE7F0E0808184608083808182608083AD
:1044A000808181608083808180688083089590E02E
:1044B000FC013197EF30F105A8F5EC55FF4FBBC279
:1044C000809180008F7703C0809180008F7D8093E2
:1044D0008000089580918000877FF9CF84B58F7721
:1044E00002C084B58F7D84BD0895809190008F7740
:1044F00007C0809190008F7D03C080919000877FDE
:104500008093900008958091C0008F7703C08091C0
:10451000C0008F7D8093C00008958091C200877F86
:104520008093C2000895CF93DF9390E0FC01E25E98
:10453000F84F2491FC01E35CF84F8491882349F102
:1045400090E0880F991FFC01E659F84FA591B491AE
:10455000845A984FFC01C591D4919FB7611108C04E
:10456000F8948C91209582238C93888182230AC0B1
:10457000623051F4F8948C91322F309583238C93D0
:104580008881822B888304C0F8948C91822B8C9331
:104590009FBFDF91CF9108950F931F93CF93DF9328
:1045A0001F92CDB7DEB7282F30E0F901E150F94F67
:1045B0008491F901E25EF84F1491F901E35CF84F40
:1045C00004910023C1F0882319F0698370DF6981A9
:1045D000E02FF0E0EE0FFF1FE45AF84FA591B491E1
:1045E0009FB7F8948C91611103C01095812301C08D
:1045F000812B8C939FBF0F90DF91CF911F910F91D3
:104600000895EF92FF920F931F93CF93DF937B0157
:10461000FC01C281D38100E010E0209781F0E881A5
:10462000F9810280F381E02DB701CE01099597FD54
:1046300008C0080F191F0884D985C02DEECFC80106
:1046400002C08FEF9FEFDF91CF911F910F91FF90ED
:10465000EF9008950F931F93CF93DF938B01FC018D
:10466000C281D381209771F0E881F9810480F581BE
:10467000E02DB801CE010995009731F40884D98561
:10468000C02DF0CF80E090E0DF91CF911F910F918E
:1046900008950F931F93CF93DF938B01FC01C28189
:1046A000D381209771F0E881F9810680F781E02DB0
:1046B000B801CE010995080F111D0884D985C02DB8
:1046C000F0CFF8011082DF91CF911F910F910895E3
:1046D0000F931F93CF93DF938B01FC01C281D38192
:1046E000209771F0E881F9810190F081E02DB80107
:1046F000CE010995811106C00884D985C02DF0CF5F
:1047000080E001C081E0DF91CF911F910F9108956A
:104710008091580281110DC082E08093540284E0A0
:1047200080935502109257021092560281E08093B6
:10473000580284E592E00895089595D1A59F900DC3
:10474000B49F900DA49F800D911D11240895B7FF73
:10475000F4CFF3DF821B930B0895DB018F939F93BC
:10476000ECDFBF91AF91A29F800D911DA39F900D93
:10477000B29F900D11240895A1E21A2EAA1BBB1B13
:10478000FD010DC0AA1FBB1FEE1FFF1FA217B3071D
:10479000E407F50720F0A21BB30BE40BF50B661F33
:1047A000771F881F991F1A9469F7609570958095F7
:1047B00090959B01AC01BD01CF010895052E97FB9B
:1047C00016F40094E9D057FD05D0D6DF07FC02D0DF
:1047D00046F4E2C050954095309521953F4F4F4F9C
:1047E0005F4F0895689401C0E894F92FF12B0AF007
:1047F00027C0A0E0B0E0EEEFF3E2ECC0092E059494
:104800001AF4D2D0112392F4F0E80F26FFEFE094CF
:10481000F09400951095B094C094D094A194BF0AE0
:10482000CF0ADF0AEF0AFF0A0F0B1F0B64D007FC49
:10483000BBD0CDB7DEB7ECE0E9C0689401C0E89426
:104840008F929F92CF93DF9356D0DF91CF919F901D
:104850008F900895DF93CF931F930F939A9DF02D20
:10486000219FF00D8B9DF00D8A9DE02DF10D039F92
:10487000F00D029FE00DF11D4E9DE00DF11D5E9DBE
:10488000F00D4F9DF00D7F936F93BF92AF925F93AA
:104890004F93D501E8D08B01AC01D701E4D0EB01F7
:1048A000E80FF91FD6011FD02F913F91D601DBD021
:1048B000C60FD71FE81FF91FAF91BF9114D02F91DA
:1048C0003F91D1D0C60FD71FE81FF91FD601CBD01B
:1048D000E60FF71F9801BE01CF0111240F911F9120
:1048E000CF91DF910895BFD0460F571FC81FD91F22
:1048F00008F43196089588249924F401E401B0E481
:104900009F93AA279A158B049C04ED05FE05CF05FD
:10491000D007A10798F4AD2FDC2FCF2FFE2FE92D64
:10492000982C892E982F872F762F652F542F432F61
:10493000322F2227B85031F7BF9127C01B2EBF91CD
:10494000BB27220F331F441F551F661F771F881F69
:10495000991F881C991CEE1FFF1FCC1FDD1FAA1F6B
:10496000BB1F8A149B04EC05FD05CE05DF05A007DF
:10497000B10748F08A189B08EC09FD09CE09DF0948
:10498000A00BB10B21601A94E1F62EF49401AF0153
:10499000BE01CD01000C08959095809570956195AC
:1049A0007F4F8F4F9F4F089560957095809590959C
:1049B00030954095509521953F4F4F4F5F4F6F4F2A
:1049C0007F4F8F4F9F4F08952F923F924F925F924C
:1049D0006F927F928F929F92AF92BF92CF92DF920F
:1049E000EF92FF920F931F93CF93DF93CDB7DEB774
:1049F000CA1BDB0B0FB6F894DEBF0FBECDBF099408
:104A00002A88398848885F846E847D848C849B845E
:104A1000AA84B984C884DF80EE80FD800C811B816C
:104A2000AA81B981CE0FD11D0FB6F894DEBF0FBE9B
:104A3000CDBFED010895EE0FFF1F0590F491E02D1D
:104A400009942A0D3B1D4C1D5D1D6E1D7F1D801F91
:104A5000911F08952A193B094C095D096E097F09C8
:104A6000800B910B0895A29FB001B39FC001A39F3B
:104A7000700D811D1124911DB29F700D811D112497
:104A8000911D08955058BB27AA270ED075C166D135
:104A900030F06BD120F031F49F3F11F41EF45BC174
:104AA0000EF4E095E7FB51C1E92F77D180F3BA17F7
:104AB000620773078407950718F071F49EF58FC19C
:104AC0000EF4E0950B2EBA2FA02D0B01B901900129
:104AD0000C01CA01A0011124FF27591B99F0593F6D
:104AE00050F4503E68F11A16F040A22F232F342FB5
:104AF0004427585FF3CF469537952795A795F04003
:104B00005395C9F77EF41F16BA0B620B730B840B17
:104B1000BAF09150A1F0FF0FBB1F661F771F881FCF
:104B2000C2F70EC0BA0F621F731F841F48F4879527
:104B300077956795B795F7959E3F08F0B3CF939516
:104B4000880F08F09927EE0F979587950895D9D08B
:104B500008F481E008950CD00FC107D140F0FED0D9
:104B600030F021F45F3F19F0F0C0511139C1F3C0AA
:104B700014D198F39923C9F35523B1F3951B550B21
:104B8000BB27AA2762177307840738F09F5F5F4F20
:104B9000220F331F441FAA1FA9F333D00E2E3AF061
:104BA000E0E830D091505040E695001CCAF729D07B
:104BB000FE2F27D0660F771F881FBB1F26173707CA
:104BC0004807AB07B0E809F0BB0B802DBF01FF27FA
:104BD00093585F4F2AF09E3F510568F0B6C000C160
:104BE0005F3FECF3983EDCF3869577956795B79534
:104BF000F7959F5FC9F7880F911D9695879597F94F
:104C00000895E1E0660F771F881FBB1F62177307C7
:104C10008407BA0720F0621B730B840BBA0BEE1FDC
:104C200088F7E095089504D06894B111D9C008952B
:104C3000BCD088F09F5790F0B92F9927B751A0F0BA
:104C4000D1F0660F771F881F991F1AF0BA95C9F720
:104C500012C0B13081F0C3D0B1E00895C0C0672F59
:104C6000782F8827B85F39F0B93FCCF386957795D0
:104C70006795B395D9F73EF49095809570956195B9
:104C80007F4F8F4F9F4F0895E89409C097FB3EF4E4
:104C900090958095709561957F4F8F4F9F4F992389
:104CA000A9F0F92F96E9BB279395F6958795779507
:104CB0006795B795F111F8CFFAF4BB0F11F460FFC7
:104CC0001BC06F5F7F4F8F4F9F4F16C0882311F01F
:104CD00096E911C0772321F09EE8872F762F05C033
:104CE000662371F096E8862F70E060E02AF09A95CE
:104CF000660F771F881FDAF7880F9695879597F9C3
:104D00000895990F0008550FAA0BE0E8FEEF16165C
:104D10001706E807F907C0F012161306E407F507AF
:104D200098F0621B730B840B950B39F40A2661F023
:104D3000232B242B252B21F408950A2609F4A140C6
:104D4000A6958FEF811D811D089597F99F6780E8D3
:104D500070E060E008959FEF80EC089500240A94CD
:104D60001616170618060906089500240A94121646
:104D70001306140605060895092E0394000C11F479
:104D8000882352F0BB0F40F4BF2B11F460FF04C026
:104D90006F5F7F4F8F4F9F4F089557FD9058440F7F
:104DA000551F59F05F3F71F04795880F97FB991F8A
:104DB00061F09F3F79F08795089512161306140647
:104DC000551FF2CF4695F1DF08C0161617061806D4
:104DD000991FF1CF86957105610508940895E894AF
:104DE000BB2766277727CB0197F908958ADF08F458
:104DF0008FEF08950BD0C0CFB1DF28F0B6DF18F0E9
:104E0000952309F0A2CFA7CF1124EACFC6DFA0F3E4
:104E1000959FD1F3950F50E0551F629FF001729F4F
:104E2000BB27F00DB11D639FAA27F00DB11DAA1F6E
:104E3000649F6627B00DA11D661F829F2227B00DBB
:104E4000A11D621F739FB00DA11D621F839FA00D46
:104E5000611D221F749F3327A00D611D231F849F96
:104E6000600D211D822F762F6A2F11249F575040ED
:104E70008AF0E1F088234AF0EE0FFF1FBB1F661F88
:104E8000771F881F91505040A9F79E3F510570F041
:104E90005CCFA6CF5F3FECF3983EDCF38695779529
:104EA0006795B795F795E7959F5FC1F7FE2B880F3C
:104EB000911D9695879597F9089511F40EF44BCFAF
:104EC00042C073DFD0F39923D9F3CEF39F57550B2C
:104ED00087FF47D00024A0E640EA9001805856950D
:104EE000979528F4805C660F771F881F20F026179F
:104EF0003707480730F4621B730B840B20293129D4
:104F00004A2BA69517940794202531254A2758F750
:104F1000660F771F881F20F026173707480730F4E1
:104F2000620B730B840B200D311D411DA09581F781
:104F3000B901842F9158880F969587950895E1DEE1
:104F4000880B990B08959F3F31F0915020F487957D
:104F500077956795B795880F911D9695879597F9E1
:104F6000089591505040660F771F881FD2F708951B
:104F7000DC01CB01FC01F999FECF06C0F2BDE1BD19
:104F8000F89A319600B40D9241505040B8F7089508
:104F9000F999FECF92BD81BDF89A992780B5089501
:104FA000A6E1B0E044E050E0E5CFA8E1B0E042E0A7
:104FB00050E0E0CFDC01CB0102C02D9105D0415083
:104FC0005040D8F70895262FF999FECF1FBA92BD09
:104FD00081BD20BD0FB6F894FA9AF99A0FBE0196DA
:104FE0000895242FF1DF252FEFDF00C0ECDF272FFE
:064FF000EBCFF894FFCFA7
:104FF6000000600220005C04FFFFFFFF00E10000EC
:105006000000000000C18081000000307800300000
:105016004C45442000207374696C6C206973206FC2
:105026006E210D0A00000000006318A6188C189A5D
:1050360018791889186E616E00696E66006F76665B
:02504600000068
:00000001FF
